:020000040800F2
:10000000080D0020BD620008E1620008E5620008FA
:10001000E9620008ED620008F162000800000000DB
:10002000000000000000000000000000F562000871
:10003000F962000800000000FD620008515A000843
:100040000163000805630008096300080D630008E8
:100050001163000815630008196300081D63000898
:100060002163000825630008296300082D63000848
:100070003163000835630008396300083D630008F8
:100080004163000845630008496300084D630008A8
:100090005163000855630008596300085D63000858
:1000A0006163000865630008696300086D63000808
:1000B0007163000875630008796300087D630008B8
:1000C0008163000885630008896300088D63000868
:1000D0009163000895630008996300089D63000818
:1000E0005F5A0008A1630008A5630008A96300081F
:1000F000AD630008B1630008B5630008B963000888
:10010000BD6300080000000000000000455B00081F
:10011000C1630008C5630008C9630008CD63000817
:10012000D1630008D5630008D9630008DD630008C7
:10013000E1630008E5630008000000000000000023
:10014000E9630008ED630008F163000800000000A7
:10015000000000000000000000000000000000009F
:10016000F5630008F9630008FD63000801640008F6
:1001700005640008096400080D64000811640008A3
:100180001564000819640008000000000000000069
:100190001D6400082DE9F04FDFF8506BDFF850BB0D
:1001A00006F120020BF1100891B0DFF8487BDFF870
:1001B000483BDFF8480BDFF848CB049700F1800597
:1001C00010370A95039000F19005099500F170042D
:1001D00000F110050B9402950BF12005019500F13B
:1001E0005005DFF8204B009500F1B00ADFF8185BEE
:1001F000CDF820A0079700F1400E00F120070697E8
:1002000000F1A00900F1300705971092CDF83CE00D
:10021000CDF83880CDF834900C9600F160010B9A3F
:10022000DDF81CE0DDF81880DDF81490DFF8DCAABA
:100230000B930D200A9B0A94099C0995089D0F9E1B
:10024000761C0F9616F8017D109E761C109606F807
:10025000017D0D9E761C0D96761E0E9F36787F1CB6
:100260000E9707F8016D0C9F0E787F1C0C9707F80E
:10027000016D049F16787F1C049707F8016D0B9F92
:100280001E787F1C0B9707F8016D0A9F26787F1C4C
:100290000A9707F8016D2026039F7F1C039707F834
:1002A000016D2027029E761C029606F8017D009EB5
:1002B000761C0096761E019F36787F1C019707F802
:1002C000016D099F15F8016B7F1C099707F8016DF7
:1002D00011F8016B0AF8016B12F8016B0BF8016B56
:1002E00013F8016B0CF8016B202614F8017B0EF853
:1002F000017B08F8016B401E09F8016B9FD111B01A
:10030000BDE8F08F70B5DFF8E449DFF8046ADFF884
:10031000045A0020E06300220121304601F0B2FFC0
:1003200001220221304601F0ADFFB820606301F0E8
:1003300096FC4020206301F092FCC020A06301F0F5
:100340008EFC00206064C0B201F0C5FC0020A064F7
:10035000A06CE16B08182064285C01F0BFFDA06C64
:10036000401C4028A064F3D3E06B8030E063606CF5
:10037000401C0828E6D3606401220121304601F0C8
:1003800081FF00220221304601F07CFFB82060632B
:1003900001F065FC4020206301F061FC4020E06337
:1003A00000206064C0B201F096FC0020A064A06C44
:1003B000E16B08182064285C01F090FDA06C401CE3
:1003C0004028A064F3D3E06B8030E063606C401C95
:1003D0000828E6D3606470BD70B5FFF793FF002472
:1003E000DFF80859DFF8286900220121304601F0C2
:1003F00049FF01220221304601F044FFE0B201F042
:1004000072FC01220121304601F03CFF0022022152
:10041000304601F037FFE0B240F0C000A863641C32
:1004200001F01DFC322001F085FF402CDCDB70BDAB
:1004300010B4DFF8E418DFF8E4388A6A0320187093
:10044000DFF8DC080468002C0ADD01220260DFF816
:10045000D438DFF8D4281C6814605C685460082223
:100460000368002B0ADC00220260DFF8C038DFF8E6
:10047000B8281C6814605C685460082227E010B437
:10048000DFF89418DFF894388A6A03201870DFF8D0
:1004900090080468002C0BDD01220260DFF8682858
:1004A00002F110031C6842F8054F5C685460082292
:1004B0000368002B0BDC00220260DFF84C2802F1FD
:1004C00018031C6842F8054F5C68546008220068F5
:1004D0008A6210BC7047F0B4DFF81018DFF850687B
:1004E000D1F88020CB6F8C6F4D6F092821D13078E7
:1004F00068B9032737704B26DFF8F807467248279C
:1005000087727A26C6720127C76200260FE030780C
:10051000012871D1032737702026DFF8D8074672EB
:10052000482787727A26C6720027C762012686622C
:1005300062E0052816D1307830B96D1C0327092DEB
:10054000377009DB092507E03078012854D10327EB
:100550006D1E377048BF0025DFF8986705F1300041
:10056000707149E0062816D1307830B9641C032731
:10057000092C377009DB092407E0307801283BD1CA
:100580000327641E377048BF0024DFF8686704F152
:100590003000B07130E0072816D1307830B95B1CDC
:1005A0000327092B377009DB092307E0307801287E
:1005B00022D103275B1E377048BF0023DFF8346762
:1005C00003F13000F07117E0082815D1307830B908
:1005D000521C0327092A377009DB092207E030780B
:1005E000012809D10327521E377048BF0022DFF8C7
:1005F000046702F1300030724D678C67CB67C1F839
:100600008020F0BC7047F0B4DFF8E416DFF8206714
:10061000CA6B8B6B4C6B0D6B09281DD1307858B9A8
:10062000032737704B20487248268E727A20C87292
:100630000126CE6700200DE03778012F6AD1032014
:10064000307020264E727A20C872482700268F729A
:10065000CE67012088675DE0052814D1307830B975
:100660006D1C0327092D377009DB092507E0307859
:1006700001284FD103276D1E377048BF002505F1B3
:100680003000487146E0062815D1307830B9641C36
:100690000327092C37700ADB092408E03078012889
:1006A00038D1641E0327002C3770D8BF002404F112
:1006B000300088712EE0072815D1307830B95B1CE6
:1006C0000327092B37700ADB092308E0307801285B
:1006D00020D15B1E0327002B3770D8BF002303F106
:1006E0003000C87116E0082814D1307830B9521C97
:1006F0000327092A37700ADB092208E0307801282D
:1007000008D1521E0327002A3770D8BF002202F1F9
:10071000300008720D634C638B63CA63F0BC704792
:10072000F0B4DFF8CC15DFF80866CD6C8C6C4B6C40
:100730000A6C052828D13078B8B9521C0327052A3D
:10074000377003DB0522002300240025DFF8A8050D
:1007500002F1300603F130074671877104F130066B
:1007600005F13007C671077261E0307801285ED16B
:100770000327521E3770002AD8BF0022DFF87865A1
:1007800002F13000707152E0062819D1307840B97A
:100790000327052AB8BF5B1C092B37700ADB092326
:1007A00008E03078012842D15B1E0327002B377008
:1007B000D8BF0023DFF8406503F13000B07136E0A8
:1007C000072819D1307840B90327052AB8BF641C1F
:1007D000092C37700ADB092408E03078012826D17B
:1007E000641E0327002C3770D8BF0024DFF808658B
:1007F00004F13000F0711AE0082818D1307840B9BF
:100800000327052AB8BF6D1C092D37700ADB09259F
:1008100008E0307801280AD16D1E0327002D3770BB
:10082000D8BF0025DFF8D06405F1300030728C6449
:10083000CD640A644B64F0BC7047F0B4DFF8B014C8
:10084000DFF8EC64CD6D8C6D4B6D0A6D052828D1F9
:100850003078B8B9521C0327052A377003DB05220C
:10086000002300240025DFF8980402F1300603F18C
:1008700030074671877104F1300605F13007C67103
:10088000077261E0307801285ED10327521E37706D
:10089000002AD8BF0022DFF8686402F130007071CE
:1008A00052E0062819D1307840B90327052AB8BF8D
:1008B0005B1C092B37700ADB092308E0307801281C
:1008C00042D15B1E0327002B3770D8BF0023DFF80F
:1008D000306403F13000B07136E0072819D1307868
:1008E00040B90327052AB8BF641C092C37700ADBFE
:1008F000092408E03078012826D1641E0327002C43
:100900003770D8BF0024DFF8F86304F13000F071CD
:100910001AE0082818D1307840B90327052AB8BF53
:100920006D1C092D37700ADB092508E03078012895
:100930000AD16D1E0327002D3770D8BF0025DFF8C0
:10094000C06305F1300030728C65CD650A654B657A
:10095000F0BC7047F0B4DFF89813DFF8D463CD6EC5
:100960008C6E4B6E0A6E052828D13078B8B9521CAF
:100970000327052A377003DB052200230024002506
:10098000DFF8800302F1300603F13007467187710A
:1009900004F1300605F13007C67107725FE0307868
:1009A00001285CD10327521E3770002AD8BF0022CD
:1009B000DFF8506302F13000707150E0062819D161
:1009C000307840B90327052AB8BF5B1C092B377064
:1009D0000ADB092308E03078012840D15B1E032799
:1009E000002B3770D8BF0023DFF8186303F1300005
:1009F000B07134E0072818D1307840B90327052AB0
:100A0000B8BF641C092C37700ADB092408E0307871
:100A1000012824D1641E0327002C3770D8BF00247E
:100A2000B84E04F13000F07119E0082817D1307881
:100A300040B90327052AB8BF6D1C092D37700ADBA2
:100A4000092508E03078012809D16D1E0327002D03
:100A50003770D8BF0025AB4E05F1300030728C6680
:100A6000CD660A664B66F0BC7047F0B4A149A04A57
:100A70004E6A0D6A546F136FAD4F052824D1387834
:100A8000A8B95B1C0320052B387003DB0523002469
:100A90000025002603F1300004F1300748758F75FA
:100AA00005F1300006F13007C8750F7659E0387847
:100AB000012856D103205B1E3870002BD8BF0023BD
:100AC00003F1300048754CE0062817D1387840B95A
:100AD0000320052BB8BF641C092C38700ADB0924DD
:100AE00008E0387801283CD1641E0320002C3870BF
:100AF000D8BF002404F13000887532E0072817D1F0
:100B0000387840B90320052BB8BF6D1C092D38700B
:100B10000ADB092508E03878012822D16D1E032060
:100B2000002D3870D8BF002505F13000C87518E0D9
:100B3000082816D1387840B90320052BB8BF761C99
:100B4000092E38700ADB092608E03878012808D118
:100B5000761E0320002E3870D8BF002606F1300024
:100B60000876136754670D624E62F0BC70476B499C
:100B7000032008706A480268032AC4BF0321016089
:100B80000268002ADCBF0021016000687047000095
:100B900010B5564CA07CA17F81421CBF0A22A277CF
:100BA00003284BD8DFE800F0021526385A4800F138
:100BB0000C01A21D0B6813604B685360082383620D
:100BC000A17F0A293AD1002000F0D7FE0021A177A9
:100BD00010BD5148011DA21D0B6813604B68536086
:100BE00008238362A07F0A2828D1002000F016FF86
:100BF000012022E0484800F11401A21D0B68136097
:100C00004B68536008238362A07F0A2816D1002016
:100C100000F03CFF022010E03F4800F11C01A21D43
:100C20000B6813604B68536008238362A07F0A2817
:100C300004D1002000F05AFF0320A07710BD00006F
:100C40002A48C17C344802788A421CBF0A230370B8
:100C500003294AD8DFE801F00214253700F10C011E
:100C6000DFF8B42D0B6813604B68536008210278DD
:100C700081620A2A39D100210170402000F07DBE36
:100C8000011DDFF8942D0B6813604B685360082139
:100C9000027881620A2A28D101210170402000F0E7
:100CA000BDBE00F11401DFF8702D0B6813604B68B6
:100CB00053600821027881620A2A16D1022101704C
:100CC000402000F0E3BE00F11C01DFF84C2D0B6862
:100CD00013604B6853600821027881620A2A04D1AC
:100CE00003210170402000F001BF70477C0000200C
:100CF0002C010020AC010020AC080020DC01002009
:100D0000DC080020BC0800209C020020CC08002049
:100D1000000400485056000800010020C5070020CC
:100D2000CC070020AC02002041010020B4020020CA
:100D3000C40700202DE9F041DFF8484DDFF8488D69
:100D4000DFF8A06D01F00AFB20700022012140466F
:100D500001F098FA01220221404601F093FA20782E
:100D600090B902213175022001F04AFBB82070636E
:100D700000F075FFC020B06300F071FF40203063C9
:100D800000F06DFF01210CE0B820706300F067FFF8
:100D9000C020B06300F063FF4020306300F05FFFCD
:100DA000002106F1200000F0D1FF2078DFF8387D27
:100DB00001282FD1B9217163B92000F050FFC02064
:100DC000B06300F04CFF4020306300F048FF012189
:100DD00007F1100000F0BAFF022001F04BFB38B918
:100DE000707DDFF86C1D80F001007075307C08604C
:100DF000707D012808D103213175022001F000FB2C
:100E0000FFF716FB307416E002203075022101F066
:100E1000F7FA10E0B920706300F021FFC020B06342
:100E200000F01DFF4020306300F019FF002107F1A2
:100E3000100000F08BFFFFF7ABFE207802282ED1C8
:100E4000BA217163BA2000F00AFFC020B06300F03D
:100E500006FF4020306300F002FF0121304600F021
:100E600075FF022001F006FB38B9707DDFF8E01C49
:100E700080F001007075B07C0860707D012808D199
:100E800003213175022001F0BBFAFFF770FEB07448
:100E900015E002203075022101F0B2FA0FE0BA200D
:100EA000706300F0DCFEC020B06300F0D8FE40208C
:100EB000306300F0D4FE0021304600F047FF207878
:100EC000DFF8F85C032840F0AB80BB217163BB20E6
:100ED00000F0C5FEC020B06300F0C1FE40203063CA
:100EE00000F0BDFE307E28B90121284600F02EFF1B
:100EF00001203076022001F0BDFA18B9012070758A
:100F00008B212971012001F0B5FA002804BF707D02
:100F100001282AD1B06D042822D10021717520202A
:100F20002871B07D717D50EA010234D10020F07546
:100F300002213175022001F063FA00203075002192
:100F4000012001F05DFAC020B06300F088FE40206F
:100F5000306300F084FE0121284600F0F7FE71E0C6
:100F6000B07D80F00100B07502E0707D0128D8D11D
:100F7000B07D0028D5D1284600F0A5FC02203075B0
:100F80000221012001F03CFA0020307500210220EE
:100F900001F036FA56E0012908BF012852D103209A
:100FA00030750321012001F02BFAB06DFFF793FAA1
:100FB000A86A012810D1B36F716F64204FF47A7260
:100FC000434302FB0131F26FD6F8800002EB82034B
:100FD00001EB4301411813E0E86A012811D1B36F16
:100FE000726F64204FF47A714343F06F01FB023259
:100FF00000EB8003D6F8800002EB430282185143D5
:10100000F165C021B163C02000F029FE40203063AB
:1010100000F025FEB26D0121284600F0ADFE11E082
:10102000BB20706300F01BFEC020B06300F017FE11
:101030004020306300F013FE0021284600F086FEB9
:10104000002030762178042940F09980BC2070631C
:1010500000F005FEC020B06300F001FE40203063C8
:1010600000F0FDFDB07E30B90121DFF8DC0C00F0AE
:101070006DFE0120B076022001F0FCF928B90120B4
:10108000DFF8C42C70758B211171012001F0F2F989
:10109000002804BF707D01282DD1B06D042825D112
:1010A0000021DFF8A42C717520201071B07D717DB6
:1010B00050EA010236D10020F0750221317502207C
:1010C00001F09EF9002030750021012001F098F90F
:1010D000C020B06300F0C3FD4020306300F0BFFDCE
:1010E0000121DFF8640C00F031FE5CE0B07D80F09F
:1010F0000100B07502E0707D0128D7D1B07D0028D5
:10110000D4D1DFF8440C00F0DEFB02203075022160
:10111000012001F075F9002030750021022001F056
:101120006FF940E0012908BF01283CD10320307548
:101130000321012001F064F9B06DFFF7F1FA7B6C37
:10114000396C64204FF47A72434302FB0131BA6C6C
:10115000F86C02EB820301EB430141187166C02079
:10116000C021B16300F07BFD4020306300F077FDCB
:10117000B26DDFF8D40B012100F0FEFD13E0BC20BE
:10118000706300F06CFDC020B06300F068FD40208B
:10119000306300F064FD0021DFF8AC0B00F0D6FDF9
:1011A0000020B076F0752078052840F09A80BD21A7
:1011B0007163BD2000F053FDC020B06300F04FFD0F
:1011C0004020306300F04BFD307F30B90121DFF863
:1011D000D40C00F0BBFD01203077022001F04AF969
:1011E00028B90120DFF8BC2C70758B21117101200A
:1011F00001F040F9002804BF707D01282DD1B06DA9
:10120000042825D10021DFF89C2C71752020107155
:10121000B07D717D50EA010236D10020F0750221C7
:101220003175022001F0ECF800203075002101201A
:1012300001F0E6F8C020B06300F011FD40203063FB
:1012400000F00DFD0121DFF85C0C00F07FFD5BE09C
:10125000B07D80F00100B07502E0707D0128D7D12B
:10126000B07D0028D4D1DFF83C0C00F02CFB02202C
:1012700030750221012001F0C3F8002030750021F3
:10128000022001F0BDF83FE0012908BF01283BD151
:10129000032030750321012001F0B2F8B06DFFF793
:1012A00059FB7B6E396E64204FF47A72434302FB24
:1012B0000131BA6EF86E02EB820301EB4301411873
:1012C000F166C020C021B16300F0C9FC402030634A
:1012D00000F0C5FCB26DDFF8CC0B012100F04CFD35
:1012E00012E0BD20706300F0BAFCC020B06300F0D3
:1012F000B6FC4020306300F0B2FC0021DFF8A40B04
:1013000000F024FD0020307701220121404600F04A
:10131000B9FF00220221404600F0B4FF20780628E1
:1013200012D101213175022001F06AF8B8207063F2
:1013300000F095FCC020B06300F091FC40203063C9
:1013400000F08DFC01210CE0B820706300F087FCF8
:10135000C020B06300F083FC4020306300F07FFCCD
:10136000002107F1200000F0F1FC2078DFF8688B05
:1013700007282FD1B9217163B92000F070FCC0207B
:10138000B06300F06CFC4020306300F068FC012189
:10139000404600F0DBFC022001F06CF838B9707DAB
:1013A000DFF8AC1780F001007075707C0860707D0C
:1013B000012808D103213175022001F021F8FFF73F
:1013C0005EF8707416E0012030750121022001F0F2
:1013D00017F80FE0B920706300F041FCC020B06343
:1013E00000F03DFC4020306300F039FC0021404615
:1013F00000F0ACFCFFF724FC2078DFF8588B0828BD
:101400002FD1BA217163BA2000F029FCC020B0634B
:1014100000F025FC4020306300F021FC0121404613
:1014200000F094FC022001F025F838B9707DDFF857
:10143000201780F001007075F07C0860707D012835
:1014400008D103213175022000F0DAFFFFF78FFB8E
:10145000F07416E0012030750121022000F0D0FF69
:101460000FE0BA20706300F0FAFBC020B06300F018
:10147000F6FB4020306300F0F2FB0021404600F014
:1014800065FC2078092840F0A980BB217163BB204E
:1014900000F0E5FBC020B06300F0E1FB40203063CA
:1014A00000F0DDFB707E28B90121384600F04EFCCB
:1014B00001207076022000F0DDFF18B90120707560
:1014C0008B213971012000F0D5FF002804BF707D09
:1014D00001282AD1B06D042822D100217175202065
:1014E0003871B07D717D50EA010234D10020F07571
:1014F00001213175022000F083FF002030750021AA
:10150000012000F07DFFC020B06300F0A8FB402068
:10151000306300F0A4FB0121384600F017FC70E0B6
:10152000B07D80F00100B07502E0707D0128D8D157
:10153000B07D0028D5D1384600F0C5F902203075BD
:101540000221012000F05CFF002030750021022004
:1015500000F056FF55E0012908BF012851D10320B2
:1015600030750321012000F04BFFB06DFFF74BF801
:10157000B86F01280FD17B6B396B64204FF47A72FE
:10158000434302FB0131BA6BF86B02EB820301EBC0
:101590004301411812E0F86F012810D17B6B3A6BC0
:1015A00064204FF47A714343B86B01FB023200EBC5
:1015B0008003F86B02EB4302821851433166C0216D
:1015C000B163C02000F04BFB4020306300F047FBCC
:1015D000B26D0121384600F0CFFB12E0BB207063F2
:1015E00000F03DFBC020B06300F039FB40203063C9
:1015F00000F035FB0021384600F0A8FB0020707693
:10160000F07520780A2840F09A80BC217163BC20D4
:1016100000F025FBC020B06300F021FB40203063C8
:1016200000F01DFBF07E30B90121DFF82C0900F03D
:101630008DFB0120F076022000F01CFF28B901206C
:10164000DFF8142970758B211171012000F012FF51
:10165000002804BF707D01282DD1B06D042825D14C
:101660000021DFF8F428717520201071B07D717DA4
:1016700050EA010236D10020F075012131750220B7
:1016800000F0BEFE002030750021012000F0B8FE01
:10169000C020B06300F0E3FA4020306300F0DFFACE
:1016A0000121DFF8B40800F051FB5CE0B07D80F070
:1016B0000100B07502E0707D0128D7D1B07D00280F
:1016C000D4D1DFF8940800F0FEF802203075022132
:1016D000012000F095FE002030750021022000F06E
:1016E0008FFE40E0012908BF01283CD1032030755E
:1016F0000321012000F084FEB06DFFF79EF87B6DA2
:10170000396D64204FF47A72434302FB0131BA6DA4
:10171000F86D02EB820301EB43014118B166C02072
:10172000C021B16300F09BFA4020306300F097FACB
:10173000B26DDFF82408012100F01EFB13E0BC208D
:10174000706300F08CFAC020B06300F088FA40208B
:10175000306300F084FA0021DFF8FC0700F0F6FAAD
:101760000020F076F07520780B2840F09680BD219F
:101770007163BD2000F073FAC020B06300F06FFA0F
:101780004020306300F06BFA707F30B9012105F121
:10179000100000F0DBFA01207077022000F06AFEF2
:1017A00018B9012070758B212975012000F062FEA7
:1017B000002804BF707D01282BD1B06D042823D1EF
:1017C0000021717520202875B07D717D50EA0102DD
:1017D00037D10020F07501213175022000F010FE94
:1017E000002030750021012000F00AFEC020B06307
:1017F00000F035FA4020306300F031FA05F11000B6
:10180000BDE8F0410121A1E2B07D80F00100B0759A
:1018100002E0707D0128D7D1B07D0028D4D105F138
:10182000100000F050F8022030750221012000F075
:10183000E7FD002030750021BDE8F041022000F0F6
:10184000DFBD012908BF01283BD1032030750321EA
:10185000012000F0D5FDB06DFFF707F97B6F396F00
:1018600064204FF47A72434302FB01312A6A686AAA
:1018700002EB820301EB430141183167C020C02114
:10188000B16300F0ECF94020306300F0E8F9B26D8C
:1018900005F11000BDE8F0416DE0BD20706300F07F
:1018A000DEF9C020B06300F0DAF94020306300F0C8
:1018B000D6F9002105F1100000F048FA00207077F9
:1018C000F075BDE8F08138B5864DC0210446A963A6
:1018D000C02000F0C4F940212963402000F0BFF986
:1018E000E87D30B9AA6D0121204600F045FA0120BB
:1018F000E875287EDFF8641601281CBF6A7E012A7D
:1019000009D10878E8B903220A70A86D401C08289C
:1019100021D909201FE0A87E01281CBFE87E0128EC
:1019200005D0287F01281CBF6A7F012A22D10878B0
:1019300038B903220A70A86D401C08280BD3082070
:1019400009E00878012815D1A86D401E042838BF89
:10195000042003220A70C021A865A963C02000F0FA
:101960007EF94020286300F07AF9AA6D2046BDE890
:10197000384000E031BD0121FEE110B504460721E9
:1019800000F025FAE0B200F08FFA564CBF206063F9
:1019900000F065F94F20206300F061F90020A06499
:1019A0000121C02021650022216D01290FD10AB932
:1019B000802002E0012A08BFC020911E042998BFA0
:1019C0004008072A18BF082A10D102200EE069B982
:1019D0000AB9022002E0012A08BF0620911E04294C
:1019E00098BF4000072A14BF082A80206065E2647F
:1019F000C0B200F073FAE26C606D521C082AD3D9B1
:101A0000216D81F001012165A16C491C0429A164AB
:101A1000C9D3E26410BD0000D208002010B504460E
:101A2000072100F0D4F9E0B200F03EFA2D4CBF20BF
:101A3000606300F014F94F20206300F010F90020DB
:101A4000A0640121802021650022E2646065C0B2AB
:101A500000F044FA216D606D012908BF400801D0F3
:101A600001B94000E26C521C072AE264EED381F017
:101A700001012165A16C491C0529A164E4D36065BD
:101A800010BD0000060900200004004810B50446FF
:101A9000072100F09CF9E0B200F006FA114CBF20DB
:101AA000606300F0DCF84F20206300F0D8F80020DD
:101AB000A0640020E06480206065C0B200F00EFAEF
:101AC000E16C06290EBFFF20606D4008491C082903
:101AD000E164F1D3A16C491C0429A164E9D36065D8
:101AE00010BD00007C0000202C01002010B5044631
:101AF000072100F06CF9E0B200F0D6F9DFF860449D
:101B0000BF20606300F0ABF84F20206300F0A7F81F
:101B10000020A0640121802021650121E16460652D
:101B200000F0DCF9E16C072908BFFF2005D094F82C
:101B30004800C2074CBF01208020491C0729E164EE
:101B4000EDD9A16C491C0529A164E6D3606510BDDF
:101B5000CC070020DFF80C24116841F4A84141F0C3
:101B600015011160536823F0E7035360916841F455
:101B70007C4141F03F019160D368DFF8EC130B40EA
:101B8000D36090B91168DFF8E40301431160536832
:101B900023F47F435360906840F07F4040F47F001F
:101BA0009060D06880B2D0607047106880B21060DA
:101BB000D168DFF8BC030140D1607047AC01002060
:101BC0001CB5DFF8B003DFF89C43016841F48021C5
:101BD0000160006800F48020009000200099FFF769
:101BE000B9FF00228021204600F04CFB0022042196
:101BF000204600F047FB00222021204600F042FB57
:101C000000224021204600F03DFB00F01EF801229A
:101C10008021204600F036FB00F017F80022012159
:101C2000204600F02FFB00220221204600F02AFB74
:101C30003F2000F014F8DFF82813C020886300F07C
:101C40000EF8BDE816400020DAE081B01E200090BA
:101C50000098411E00280091FAD101B070472DE98B
:101C6000F041DFF81453DFF8FC820446EC600020FA
:101C7000FFF770FF00224021404600F003FB0022E6
:101C80002021404600F0FEFA00220421404600F0E8
:101C9000F9FAD8F814706E68240227F47F47F643E7
:101CA0002743360627F07F473743C8F81870FFF7F9
:101CB000CCFFEF602C616E6101224021404600F0B4
:101CC000E1FAFFF7C2FF00224021404600F0DAFAB5
:101CD000BDE8F041B9E700F0BF00DFF8841240F042
:101CE000B8004863BBE7DFF8781240F0C0008863B3
:101CF000B5E738B5DFF88442DFF8845200EB8000A6
:101D000060620020A062616A4018285C00F0E6F87A
:101D1000A06A401C0528F5D3A06231BD38B5974CA8
:101D2000974D00EB800060620020A062616A40185D
:101D3000285CC043C0B200F0D1F8A06A401C05285E
:101D4000F3D3A06231BD0000AC08002070B5054699
:101D50008C4E41B90C2415F8010B3070FFF7C9FF08
:101D6000641EF8D170BD0C2415F8010B3070FFF71C
:101D7000D5FF641EF8D170BDF8B504461546814EF6
:101D800071B9002720783070AF4202D1FFF7C6FF4B
:101D900001E0FFF7AEFF7F1C641C0B2FF2DDF1BDED
:101DA0000027AF4205D0092D08D10A2F18BF0B2FED
:101DB00004D120783070FFF79CFF03E0207830706A
:101DC000FFF7ACFF7F1C641C0B2FEADDF1BD10B5E3
:101DD0000C46C0B200F068F8E0B2FFF77CFF604943
:101DE000664C40200863FFF73AFF0020A062002005
:101DF00000F074F8A06A401C4028F7D3A06210BD20
:101E000070B50446574E00220121304600F03AFAE0
:101E100001220221304600F035FA514DB8206863A6
:101E2000FFF71DFF40202863FFF719FF00206864BB
:101E3000C0B2FFF750FF0020A864204600F04EF823
:101E4000A86C401C4028A864F7D3686C401C082884
:101E5000EDD3686401220121304600F013FA00221C
:101E60000221304600F00EFAB8206863FFF7F7FE53
:101E700040202863FFF7F3FE00206864C0B2FFF73C
:101E80002AFF0020A864204600F028F8A86C401C17
:101E90004028A864F7D3686C401C0828EDD3686418
:101EA00070BD0000BC08002010B540282D4C06DA9B
:101EB00000220121204600F0E5F9012205E001227F
:101EC0000121204600F0DEF900222046BDE8104046
:101ED000022100F0D7B900009C02002070B5264C0A
:101EE000204DA060C343002102021B06E160226175
:101EF00063610020FFF72EFE00224021284600F0FB
:101F0000C1F900222021284600F0BCF90122042159
:101F1000284600F0B7F9FFF798FE6E6921696069FD
:101F200026F47F460E4326F07F460643AE61FFF758
:101F30008CFEE66001224021284600F0A3F9FFF75D
:101F400084FE00224021284600F09CF9BDE8704044
:101F50007BE60000CC080020DC080020C40700203D
:101F60007C00002000040048C003FFFF000055551E
:101F7000FFFF5555141002406400002000010020AE
:101F8000BC020020070900202DE9FC470546002679
:101F9000B5F1904F1CBFDFF81C0385420F461CD0E3
:101FA000DFF814138D421CBFDFF81003854214D0F4
:101FB000DFF80C138D421CBFDFF8080385420CD0FC
:101FC000DFF804138D421CBFDFF80023954204D0D4
:101FD000C321DFF8FC0200F01EFB3868010402D0C8
:101FE000000C000404D0C421DFF8E40200F013FB6D
:101FF0007868002818BF012824D0112818BF0228AB
:1020000020D012281CBFDFF8CC1288421AD0DFF88B
:10201000C82290421CBFDFF8C412884212D0DFF8F9
:10202000C02290421CBFDFF8BC1288420AD0DFF801
:10203000B822904218BF032804D0C521DFF89002CF
:1020400000F0E9FAB86800281CBF0128022832D045
:10205000C621DFF87C0200F0DEFA2CE0DFF868C26F
:10206000654514BF4FF0070C4FF0060C0CFA02F256
:102070001A4341F82020E143DFF8700202687B68D0
:102080000A40DB0348BF2243026042687B680A4083
:102090009B0348BF2243426082687B680A40DB02A0
:1020A00048BF22438260C2680A4079688B0248BFF9
:1020B0002243C260761C3C6834FA06F000F0D080FF
:1020C000012000FA06F818EA0404F3D07868022820
:1020D00018BF12283ED1B5F1904F1CBFDFF8D401D4
:1020E00085421CD0DFF8D0118D421CBFDFF8CC0137
:1020F000854214D0DFF8C8118D421CBFDFF8C4013F
:1021000085420CD0DFF8C0118D421CBFDFF8BC0146
:10211000854204D0D521DFF8B80100F07CFA386997
:102120000D2808D30E2818BF0F2804D0D621DFF8B9
:10213000A00100F070FAF00805EB8000B200016A1F
:1021400002F01C020F23934099433B6903FA02F209
:10215000114301624FEA46090321286801FA09F197
:102160006FEA010A397901F003010AEA000001FA75
:1021700009F1084328607868012818BF022803D0B5
:10218000112818BF12281BD1F86800281CBF01288D
:10219000032804D0EA21DFF8380100F03CFAA868EF
:1021A000F9680AEA000001FA09F10843A8606868C2
:1021B00020EA08017868C0F30010B0400843686066
:1021C000E8680AEA0001B86800FA09F00843E86024
:1021D0007968C8007FF56EAF4548016841F001019C
:1021E0000160B2000068434900F00100009002F075
:1021F0000C020098B00851F820C00F2393402CEA3D
:102200000303B5F1904F08BF4FF0000C3FF42EAF21
:10221000DFF8A0C0654508BF4FF0010C3FF426AFC2
:10222000DFF894C0654508BF4FF0020C3FF41EAFC5
:10223000DFF888C0654508BF4FF0030C3FF416AFC8
:10224000DFF87CC0654508BF4FF0040C3FF40EAFCB
:10225000DFF870C065457FF401AF4FF0050C05E76E
:10226000BDE8F38738B50D00044604D14FF4C871BA
:10227000174800F0D0F920690540681E8041C0432E
:10228000C00F32BD70B504460D462800164604D175
:102290004FF4D8710E4800F0BEF9300008D0012E7E
:1022A00004D040F2B1110A4800F0B5F9A56170BD43
:1022B000A56270BD0004004800080048000C0048FA
:1022C000001000480014004800180048001C004896
:1022D000BC5C00080000111000002110000031104B
:1022E0000000121000002210000032100004014013
:1022F0001810024008000140704730B4002513E078
:1023000050F8042BD30744BFA9F101039A18091F01
:10231000042942F8045BFAD213468C0744BF1580A7
:102320009B1CC90748BF1D7050F8041B0029E7D14A
:1023300030BC704738B5044600F06EF914F1010F57
:10234000054602D004480178641800F065F9401B86
:10235000A042FAD331BD00BFB807002038B52448E9
:10236000244C0178244D49BB287888B994F90100A0
:1023700006280DDC214A1178022000F041F860782F
:10238000401C607040B2062818DB0520607022E017
:102390002878012814D12056002811D4174909782B
:1023A000022000F02DF86078401E607040B20028D6
:1023B00004D5002060700321297004E003222A70F4
:1023C00094F9010048B9022000F054F828B92078A7
:1023D00080F0010020700321297094F9000094F925
:1023E000011000EB400204EB42021144087932BDB7
:1023F0009100002054000020C5070020900000201C
:1024000070B50329044634D8DFE801F0020E1A2023
:102410002F4D05EB8400061F55F83400318800224B
:10242000FFF730FF00221CE0294D05EB8400061F5A
:1024300055F8340031880122FFF724FF002210E014
:10244000234D05EB8400061F002204E0204D05EB20
:102450008400061F0122318855F83400FFF712FF6F
:10246000012205EBC40071884068BDE87040FFF7A9
:1024700009BF70BD2DE9F0410746164C04EB8705F6
:1024800004EB4706A868F188FFF7ECFE002802BFBE
:10249000E019C17801294FF0010804D100F8018C3E
:1024A0000021C1708846F188A868FFF7DBFE01288B
:1024B00002BFE01910F8011C012905D1002200F823
:1024C000012CC1704FF001084046BDE8F0810000CA
:1024D00014000020000000202DE9F84F00F0A2F8C1
:1024E00000F044F800F0B0F800F072F900F0B4F930
:1024F00000220021282000F020FA282000F05CFAB9
:1025000000220021332000F018FA332000F054FAA2
:10251000FFF756FBFDF7F6FE40F6B830FFF70AFF6F
:10252000FDF75AFF0020FFF76BFCFDF733FE304C40
:10253000304D314E314FDFF8C880DFF8C890DFF8FA
:10254000C8A0DFF8C8B0FEF7F5FBDBF80030DAF81A
:102550000020D9F8001098F8000000F08DFA3B68D0
:1025600032682968207800F0A6FAECE7102200B55E
:102570000121A5B00220099208914FF400420C926B
:1025800005900B904FF4E01100220D910E9205A8DA
:1025900000F0BAFA00B1FEE7022101910F204FF4DA
:1025A0008061009000220391029204920221684609
:1025B00000F0ECFC00B1FEE7022100220F91129224
:1025C0000FA800F043FE00B1FEE700F003FE104A42
:1025D000A0FB0221480A00F004FA042000F012FADD
:1025E000002200214FF0FF3000F0A7F925B000BD18
:1025F0008F000020E4000020DC000020EC00002020
:102600008E000020E0000020D8000020E80000201C
:10261000986E1283FEE7704701484068704700BF1C
:10262000B807002080B50748016841F0100101603B
:10263000032000F063F9002001F070F801F08EF83B
:10264000002002BD00200240F8B55C485C4C5D4EA5
:102650005D4F86B0016841F4002101604FF6F775C7
:10266000026802F4002205920599026842F4800291
:102670000260036803F4800305930599026842F43D
:1026800000320260036803F4003305930599026881
:1026900042F480220260036803F4802305930599C5
:1026A000026842F4801202600022006800F4801088
:1026B000059042F63011059B2046FFF7E3FD00220E
:1026C00029463046FFF7DEFD00224FF403414FF06C
:1026D0009040FFF7D7FD002204213846FFF7D2FDD6
:1026E0004FF40451009101220021029103910192C3
:1026F00069462046FFF748FC40F2CF2003210090B6
:1027000001910022029269462046FFF73DFC93208A
:102710000021009001910122029269464FF0904001
:10272000FFF732FC4FF48350032100900191002207
:10273000029269464FF09040FFF726FC4FF4036188
:102740000091012201920021029103220392694625
:102750002046FFF719FC012003210190002203917C
:102760000292009569463046FFF70EFC4FF4034194
:1027700000910122019200210291032203926946F5
:102780004FF09040FFF700FC4FF440600F4900907D
:1027900001910122029269464FF09040FFF7F4FB4D
:1027A000042100910122019200210291032203924F
:1027B00069463846FFF7E8FB07B0F0BD1410024049
:1027C0000008004800040048000C004800002110E8
:1027D00080B51D481D4901604FF4164200230C21AD
:1027E00042608360C360036141618361C3610362CE
:1027F000436200F0F9FF28B1BDE8044044211448C9
:10280000FFF708BF01BD00681049884200D070473B
:1028100080B5104886B0026842F4003202600C2194
:10282000006800F4003000900222009801910292AA
:102830000021039104914FF090400721059101A9D7
:10284000FFF7A2FB07B000BDD807002000440040FE
:10285000906000081C10024080B5234823490160A5
:102860004FF482724FF47061C16042603821C161DF
:1028700000230721C1624FF40072082183600361C5
:10288000436182610362436283620363416301F0D7
:10289000ABFA28B1BDE8044047211548FFF7BABE9E
:1028A00001BD00681149884200D0704780B51148C9
:1028B00086B0026842F4004202604FF4A051006802
:1028C00000F400400090022200980B48019102920F
:1028D00000210391032206210591049201A9FFF72B
:1028E00053FB07B000BD000048080020003C00403A
:1028F000106000081C1002400008004810B5044693
:10290000072C18BF062C09D0052C1CBF042C032C47
:1029100004D0BC21DFF81401FFF77DFEDFF81021A1
:1029200010684FF6FF012402084004F4E0640443F9
:10293000DFF800010443146010BD70B51546102D7A
:1029400004460E4604D3D421DFF8E000FFF763FE0F
:10295000102E04D3D521DFF8D400FFF75CFEDFF89A
:10296000D0000168C1F30220C0F10702052A28BF88
:102970000F2105D20122C0F1070102FA01F1491E1F
:10298000021D072A34BF0020C01E0E4086400121D0
:1029900001FA00F0401E05402E433001210007D50A
:1029A000DFF8941004F00F040A1902F8040C70BD4B
:1029B000DFF88830185570BD38B50446250004D5B9
:1029C000E821DFF86800FFF726FE012104F01F046C
:1029D000DFF86C00FFE701FA04F46D0940F82540C8
:1029E00031BD401EB0F1807F01D3012070471549F1
:1029F000154A48600023F02010708B6007200860A3
:102A00000020704780B504280BD020B140F2E111BE
:102A10000648FFF700FE0B48016821F00401016041
:102A200001BD0848016841F00401F8E7105C0008A6
:102A30000CED00E00000FA0518ED00E000E400E015
:102A400000E100E010E000E023ED00E000F000B85D
:102A500070470000274800E02748417901F03F0116
:102A600041F03001417141680170091201F00F011C
:102A700041F030014170704710B501F063FC1D4C0E
:102A8000207A012816D02069616860F30B0161602B
:102A9000FFF7E0FF00224FF400611848FFF7F2FB58
:102AA0000120207201222146154801F0B0FAE068A9
:102AB000401CE06010BD10B501F090FC0E4C207A77
:102AC000012815D02069616860F30B016160FFF790
:102AD000C3FF002210210B48FFF7D4FB0120207216
:102AE00001222146064801F092FAE068401CE060AD
:102AF00010BD00002C00002040000020000800480D
:102B000048080020000400482DE9FC41040005D1DC
:102B100040F21911DFF8F406FFF77DFD206840B19F
:102B200010F00F0F05D14FF48D71DFF8E006FFF7BD
:102B300072FD2078DFF8C856C10764D560680028A8
:102B40001CBFB0F5803FB0F5A02F05D04FF49071B9
:102B5000DFF8B806FFF75FFD686800F00C00042896
:102B60000AD0686800F00C00082802BF686800F40A
:102B7000C030B0F5803F0AD12868C0F3404000283B
:102B800041D0606800283ED10120BDE8F681606830
:102B9000B0F5803F04D1286840F48030286014E00C
:102BA00008B928680AE0B0F5A02F286806D140F4DB
:102BB00080202860296841F4803105E020F48030CD
:102BC0002860296821F480212960606870B1FFF7CE
:102BD00023FD06462868C0F34040A0B9FFF71CFD5E
:102BE000801B6528F6D30320BDE8F681FFF714FDAE
:102BF00006462868C0F3404028B1FFF70DFD801B52
:102C00006528F6D3EFE72078810731D5E068002802
:102C100018BF012805D04FF4AC71DFF8F005FFF7BD
:102C2000FAFC2069202805D340F25911DFF8DC05B1
:102C3000FFF7F1FC686810F00C0F0AD0686800F02C
:102C40000C00082802BF686800F4C030B0F5004FDF
:102C500031D12868C0F3400000281CBFE06801287B
:102C600092D12868216920F0F80040EAC10028606C
:102C70002078010753D5606900283FD0012808D08B
:102C800040F29911DFF88405FFF7C5FC6069002860
:102C900034D0DFF87C0501210160FFF7BDFC06465A
:102CA000686AC0F34000002839D1FFF7B5FC801BEB
:102CB0000228F5D997E7E068DFF8581578B10122C6
:102CC0000A60FFF7A9FC06462868C0F34000002808
:102CD000C7D1FFF7A1FC801B0228F5D983E7086064
:102CE000FFF79AFC06462868C0F340000028BFD0D2
:102CF000FFF792FC801B0228F5D974E7DFF8101566
:102D000000200860FFF788FC0646686AC0F34000B0
:102D100028B1FFF781FC801B0228F6D963E72078F1
:102D200041076FD5A068002600281CBF0128052890
:102D300005D040F2C511DFF8D404FFF76CFCE86958
:102D4000C10009D4E86940F08050E8610126E869D3
:102D500000F0805000900098DFF8BC743868C1051E
:102D600010D4386840F480703860FFF755FC804616
:102D70003868C10506D4FFF74FFCA0EB08006528B2
:102D8000F6D330E7A068012803D1286A40F001009B
:102D900012E008B9286A09E00528286A06D140F03F
:102DA00004002862286A40F0010005E04008400065
:102DB0002862286A20F00400286241F28937A0685E
:102DC00068B1FFF729FC8046286AC0F34000A0B92B
:102DD000FFF722FCA0EB0800B842F5D303E7FFF7AA
:102DE0001BFC8046286AC0F3400030B1FFF714FC9A
:102DF000A0EB0800B842F5D3F5E61EB1E86920F073
:102E00008050E861A069002800F0BD80012818BF4B
:102E1000022809D040F20921DFF8F003FFF7FBFB9D
:102E2000A069002800F0AF80686800F00C00082856
:102E30003FF4AAAEA069022840F09480E069B0F5A2
:102E4000004F18BFB0F5803F05D040F21221DFF8E7
:102E5000BC03FFF7E0FB206A002818BFB0F5802F05
:102E60002BD0B0F5002F18BFB0F5402F25D0B0F50E
:102E7000801F18BFB0F5A01F1FD0B0F5C01F18BF2E
:102E8000B0F5E01F19D0B0F5001F18BFB0F5101F46
:102E900013D0B0F5201F18BFB0F5301F0DD0B0F51E
:102EA000401F1CBFB0F5501FB0F5601F05D040F2A9
:102EB0001321DFF85803FFF7AEFB606A002818BF44
:102EC000012821D0022818BF03281DD0042818BFCC
:102ED000052819D0062818BF072815D0082818BFBC
:102EE000092811D00A2818BF0B280DD00C2818BFAC
:102EF0000D2809D00E2818BF0F2805D040F2152143
:102F0000DFF80803FFF787FBDFF80863002030666F
:102F1000FFF782FB07462868C0F3406028B1FFF73F
:102F20007BFBC01B0228F6D95DE6E86A616A0009EE
:102F300041EA0010E8626868216AE26920F47610CC
:102F400008431043686001203066FFF765FB0446C4
:102F50002868C0F34060B0B9FFF75EFB001B022891
:102F6000F6D940E6DFF8AC1200200866FFF754FB04
:102F700004462868C0F3406028B1FFF74DFB001BF2
:102F80000228F6D92FE60020BDE8F6812DE9F041B0
:102F900004000D4605D140F27721DFF87002FFF7FB
:102FA0003AFB217811F00F0F05D14FF41E71DFF8B5
:102FB0005C02FFF730FB002D1CBF012D022D05D058
:102FC00040F27921DFF84402FFF725FBDFF84C627D
:102FD000306800F00700A8420AD23168C90845EA03
:102FE000C1013160306800F00700A84240F08D80D8
:102FF0002078DFF80C7281071DD5A068002818BF63
:10300000802812D0902818BFA0280ED0B02818BF52
:10301000C0280AD0D0281CBFE028F02805D04FF4E3
:103020002471DFF8E801FFF7F6FA7968A06821F06B
:10303000F001014379602178C80757D56068B8B1BD
:1030400001280AD002280ED040F29721DFF8BC01F7
:10305000FFF7E1FA6068012803D13868C0F3404007
:1030600004E0022804D13868C0F3406028B94CE07D
:103070003868C0F34000002847D079686068890844
:1030800040EA81017960FFF7C7FA8046606801284D
:103090000FD1786800F00C00042827D0FFF7BCFAA5
:1030A000A0EB080041F289318842F2D30320BDE849
:1030B000F08102280DD1786800F00C00082815D0A6
:1030C000FFF7AAFAA0EB080041F289318842F2D357
:1030D000ECE7786810F00C0F08D0FFF79DFAA0EB32
:1030E000080041F289318842F3D3DFE7306800F00D
:1030F000070085420CD23168C90845EAC101316038
:10310000306800F00700A84202D00120BDE8F0813D
:103110002078410718D5E068002818BFB0F5806F07
:103120000CD0B0F5A06F1CBFB0F5C06FB0F5E06F6C
:1031300004D040F2E9213548FFF76DFA7968E0687C
:1031400021F4E061014379602178080719D52069ED
:10315000002818BFB0F5806F0CD0B0F5A06F1CBF71
:10316000B0F5C06FB0F5E06F04D04FF43C71274864
:10317000FFF751FA7868216920F4605040EAC100F5
:10318000786000F00FF87968254AC1F30311515CAB
:103190001C4AC8401060002000F0C0FA0020BDE8C2
:1031A000F08100001F490A6802F00C0008280FD1C6
:1031B0001EA3DFF854C0C2F38340185CD1F8281076
:1031C0001EA301F00F01595CBCFBF1F148437047AD
:1031D0000D4870470B48006870471248094A01685B
:1031E000114B1068C1F3022106E00E48054A016840
:1031F0000D4B1068C1F3C221595CC84070470000F4
:1032000000100240D007002000127A00C05E0008C3
:103210008004424200004242007000400020024010
:103220008061000804100240D8620008020304050F
:10323000060708090A0B0C0D0E0F101001020304FB
:1032400005060708090A0B0C0D0E0F102DE9F843AF
:103250000546DFF8B4342A68DFF8B0849A4203D315
:103260007D214046FFF7D7F92868DFF8A474C10331
:1032700064D56868002818BFB0F5807F09D0B0F524
:10328000007F18BFB0F5407F03D083214046FFF791
:10329000C2F9B8690024C10009D4B86940F080506F
:1032A000B8610124B86900F0805000900098DFF800
:1032B00064643068C10512D4306840F480703060B6
:1032C000FFF7AAF981463068C10508D4FFF7A4F9D1
:1032D000A0EB09006528F6D30320BDE8F283F86966
:1032E00010F440701EBF696801F4407188421AD022
:1032F000DFF82414F86901220A60002320F44070EA
:103300000B60F861C0070ED5FFF786F9064641F25B
:103310008939F869C0F3400028B9FFF77DF9801BAF
:103320004845F6D3D8E7F969686821F4407101434C
:10333000F9611CB1B86920F08050B8612878C107E4
:1033400012D5A868002818BF012807D0022818BF86
:10335000032803D0CA214046FFF75DF9F96AA8683F
:10336000890840EA8101F9622978880715D5E8685B
:10337000002818BFB0F5803F09D0B0F5003F18BF56
:10338000B0F5403F03D0D5214046FFF744F9F96A34
:10339000E86821F440310143F9622978480715D5DE
:1033A0002869002818BFB0F5802F09D0B0F5002F8C
:1033B00018BFB0F5402F03D0E1214046FFF72BF9AD
:1033C000F96A286921F440210143F96229788806C5
:1033D0000ED5E869002818BF102803D0EC2140461C
:1033E000FFF719F9F96AE86921F010010143F96260
:1033F000296888030FD5686DB0F5800F18BF0028C5
:1034000003D0FA214046FFF706F93968686D21F4C8
:10341000800101433960297848060FD5286A0028C1
:1034200018BF202804D04FF487714046FFF7F3F807
:10343000F96A286A21F020010143F96229684803EA
:103440000FD5686A002818BF402804D04FF4907147
:103450004046FFF7E0F8F96A686A21F0400101434D
:10346000F9622978080716D56869002818BFB0F5F1
:10347000801F0AD0B0F5001F18BFB0F5401F04D060
:1034800040F22F114046FFF7C6F8F96A686921F447
:1034900040110143F9622978C80616D5A8690028A9
:1034A00018BFB0F5800F0AD0B0F5000F18BFB0F507
:1034B000400F04D040F239114046FFF7ACF8F96AEA
:1034C000A86921F440010143F9622968880510D5F3
:1034D000286B002818BFB0F5000F04D040F2491146
:1034E0004046FFF798F83968286B21F40001014342
:1034F00039602978080630D5A86A002818BFB0F5C9
:10350000807F24D0B0F5887F18BFB0F5907F1ED0A3
:10351000B0F5987F18BFB0F5A07F18D0B0F5A87FA0
:1035200018BFB0F5B07F12D0B0F5B87F18BFB0F5B6
:10353000C07F0CD0B0F5C87F1CBFB0F5D07FB0F510
:10354000D87F04D040F269114046FFF764F8B96AA9
:10355000A86A21F4F8710143B9622968C80530D519
:10356000E86A002818BFB0F5005F24D0B0F5085F06
:1035700018BFB0F5105F1ED0B0F5185F18BFB0F5DA
:10358000205F18D0B0F5285F18BFB0F5305F12D0BB
:10359000B0F5385F18BFB0F5405F0CD0B0F5485FAC
:1035A0001CBFB0F5505FB0F5585F04D04FF4BD714B
:1035B0004046FFF730F8B96AE86A21F478510143D0
:1035C000B9622968C80410D5686B002818BFB0F527
:1035D000807F04D04FF4CD714046FFF71CF8F96AA4
:1035E000686B21F480710143F9622968880410D561
:1035F000286C002818BFB0F5007F04D04FF4D671B6
:103600004046FFF708F8F96A286C21F4007101437D
:10361000F9622968C80210D5A86B002818BFB0F15C
:10362000807F04D040F203214046FEF7F4FFF96AA0
:10363000A86B21F080710143F9622968880210D5D6
:10364000E86B002818BFB0F1007F04D040F20D21D4
:103650004046FEF7E0FFF96AE86B21F00071014394
:10366000F9622968480210D5686C002818BFB0F5C7
:10367000806F04D040F217214046FEF7CCFFF96A74
:10368000686C21F480610143F9622968080210D551
:10369000A86C002818BFB0F5006F04D040F22121BB
:1036A0004046FEF7B8FFF96AA86C21F400610143B7
:1036B000F9622968C80110D5E86C002818BFB0F578
:1036C000005F04D040F22B214046FEF7A4FFF96AC8
:1036D000E86C21F400510143F9622968880110D592
:1036E000286D002818BFB0F5004F04D04FF40E71BC
:1036F0004046FEF790FFF96A286D21F4004101432E
:10370000F9620020BDE8F2830034F703685D000829
:1037100004100240007000404004424238B50D4D94
:103720000D4B2A7804464FF47A711868B1FBF2F217
:10373000B0FBF2F0FFF755F950B9102C08D2002277
:1037400021464FF0FF30FFF7F8F8AC60002032BDA3
:10375000012032BDB8070020D007002080B52148E5
:10376000016841F001010160026802F0010200926B
:103770000099426842F080524260406800F08050F8
:10378000009000980720FFF7B9F8002200216FF0A1
:103790000B00FFF7D2F8002200216FF00A00FFF7BC
:1037A000CCF8002200216FF00900FFF7C6F80022D4
:1037B00000216FF00400FFF7C0F8002200216FF035
:1037C0000300FFF7BAF8002200216FF00100FFF7B5
:1037D000B4F8BDE80840002200214FF0FF30FFF7A9
:1037E000ACB800BF1810024038B504003CD02168C6
:1037F000A069DFF8AC2058B191421FBFDFF8A420C8
:103800009142DFF8A430994219D040F2311112E010
:1038100091421CBFDFF88C20914210D0DFF8880065
:1038200081421FBFDFF884209142DFF8840081428B
:1038300005D04FF49B71DFF87C00FEF7ECFE04F13D
:103840006805687820B9002129702046FEF7DBFF63
:1038500024206870206801684908490001602046FA
:1038600000F02AF8012801D1012032BD606A10B1B0
:10387000204600F070F92068416821F490414160D1
:103880002068816821F02A01FFE7816020680168D3
:1038900041F0010101602046BDE8324000F050BA1D
:1038A000003801400044004000480040004C004007
:1038B00000500040145E00082DE9F0410446102538
:1038C0006268DFF81035002600279A42DFF800858D
:1038D00004D340F639014046FEF79DFEA068B0F1E2
:1038E000805F1CBF0028B0F5805F04D040F63A012D
:1038F0004046FEF790FEE068B0F5805F18BF0028F4
:103900000AD0B0F5405F18BFB0F5005F04D040F6B4
:103910003B014046FEF77FFE206900281CBFB0F542
:10392000806FB0F5C06F04D040F63C014046FEF712
:1039300072FE616931F00C0000D121B940F63D0101
:103940004046FEF768FEA069002818BFB0F5807FEA
:103950000AD0B0F5007F18BFB0F5407F04D040F624
:103960003E014046FEF757FE206A002818BFB0F51A
:10397000006F04D040F63F014046FEF74CFEE06980
:10398000002818BFB0F5004F04D04FF40461404642
:10399000FEF741FE2268DFF840041368A168034087
:1039A00020690B4361690343E0690B4303431360E0
:1039B0005168E06821F44051014351609368A16966
:1039C000206A23F430630B43DFF8F01303438A4289
:1039D00093600CD1DFF80404036803F00303032BA6
:1039E00044D8DFE803F0022C421701253EE0DFF85F
:1039F000D003824210D1DFF8E4130B6813F4403394
:103A000057D0B3F5803F1AD0B3F5003F2DD0B3F5B2
:103A1000403F2BD1022529E0DFF8A803824210D1D4
:103A2000DFF8B8130B6813F4402342D0B3F5802FAE
:103A300005D0B3F5002F18D0B3F5402F13E00425BF
:103A400014E0DFF88403824220D1DFF890130B6882
:103A500013F440132DD0B3F5801FF0D0B3F5001F41
:103A600003D0B3F5401FD5D000E00825E069B0F5DC
:103A7000004F43D1082D37D8DFE805F0051D20366B
:103A8000263636362F00FFF7A8FB1FE0DFF83C0391
:103A90008242EBD1DFF844130B6813F4400308D0E3
:103AA000B3F5800FCBD0B3F5000FDED0B3F5400FE8
:103AB000D9E70025DAE7FFF798FB07E06068DFF851
:103AC000201301EB50010CE0FFF76CFB61684A0822
:103AD00002EB4002B2FBF1F607E06068410801F535
:103AE0008031B1FBF0F600E001274FF6F071314074
:103AF000C6F3420001432068C16029E0082D26D8A2
:103B0000DFE805F005080B25112525251C00FFF72A
:103B100064FB0AE0FFF769FB07E06068DFF8C412A6
:103B200001EB50010EE0FFF73DFB616800EB510037
:103B3000B0FBF1F0216880B2C86009E0606841081C
:103B400001F50041B1FBF0F080B2D06000E0012748
:103B50003846BDE8F08110B50446606AB0F5807F54
:103B600005D340F6A201DFF86802FEF754FD94F891
:103B70002400C10712D5A06A002818BFB0F5003F85
:103B800005D040F6A701DFF84802FEF744FD2168A2
:103B90004A68A06A22F4003202434A6094F8240082
:103BA000810712D5E06A002818BFB0F5803F05D024
:103BB00040F6AE01DFF81802FEF72DFD21684A68D5
:103BC000E06A22F4803202434A6094F824004107FC
:103BD00012D5206B002818BFB0F5802F05D040F615
:103BE000B501DFF8EC01FEF716FD21684A68206B8D
:103BF00022F4802202434A6094F82400010712D57F
:103C0000606B002818BFB0F5004F05D040F6BC012E
:103C1000DFF8BC01FEF7FFFC21684A68606B22F404
:103C2000004202434A6094F82400C10612D5A06BFA
:103C3000002818BFB0F5805F05D040F6C301DFF85B
:103C40009001FEF7E8FC21688A68A06B22F480529C
:103C500002438A6094F82400810612D5E06B0028A4
:103C600018BFB0F5005F05D040F6CA01DFF860016B
:103C7000FEF7D1FC21688A68E06B22F4005202430F
:103C80008A6094F82400410641D52068DFF82C2191
:103C900090421FBFDFF828118842DFF828219042A8
:103CA00005D040F6D101DFF82801FEF7B4FC206C06
:103CB000002818BFB0F5801F05D040F6D201DFF80C
:103CC0001001FEF7A8FC21684A68206C22F48012DB
:103CD00002434A60216CB1F5801F18D1606C002846
:103CE00018BFB0F5001F0BD0B0F5800F18BFB0F5AE
:103CF000C00F05D040F6D701DFF8D400FEF78BFCEB
:103D000021684A68606C22F4C00202434A6094F859
:103D10002400010612D5A06C002818BFB0F5002FB2
:103D200005D040F6DF01DFF8A800FEF774FC21683B
:103D30004A68A06C22F4002202434A6010BD0000D1
:103D400070B5054605F1680400206060FEF764FC6C
:103D50000646286801680A071AD52868C1698802DA
:103D600016D4FEF759FC801BB0F1007FF5D328680C
:103D7000016821F4D0710160286881684908490010
:103D8000816020206070A07000202070032070BD32
:103D9000286801684A070AD52868C169480206D41C
:103DA000FEF73AFC801BB0F1007FF5D3DFE720215E
:103DB0006170A17000200021217070BD00380140A9
:103DC0000044004000480040004C004000500040CB
:103DD000145E000841548900F369FFEF301002407F
:103DE0000024F40000127A0070B5040001D1012013
:103DF00070BD2068DFF8BC1288421CBFDFF8B82213
:103E000090420DD0DFF8B41288421CBFDFF8B02218
:103E1000904205D040F21B11DFF8A802FEF7FBFB31
:103E20006068002818BFB0F5827F05D04FF48E710E
:103E3000DFF89002FEF7EFFBA06800281CBFB0F58A
:103E4000806FB0F5004F05D040F21D11DFF874020D
:103E5000FEF7E1FBE068B0F5706F18BFB0F5606F7A
:103E600025D0B0F5506F18BFB0F5406F1FD0B0F53A
:103E7000306F18BFB0F5206F19D0B0F5106F18BFB4
:103E8000B0F5006F13D0B0F5E06F18BFB0F5C06F9C
:103E90000DD0B0F5A06F1CBFB0F5806FB0F5407FBE
:103EA00005D04FF48F71DFF81C02FEF7B4FBA06958
:103EB000B0F5007F1CBF0028B0F5802F05D040F280
:103EC0001F11DFF80002FEF7A6FB606B082818BF81
:103ED000002805D04FF49071DFF8E801FEF79BFB56
:103EE000E069002818BF082811D0102818BF18282A
:103EF0000DD0202818BF282809D0302818BF38280E
:103F000005D040F22111DFF8BC01FEF784FB206AE6
:103F1000002818BF802805D04FF49171DFF8A40164
:103F2000FEF779FB606A48B110281DD040F22311DA
:103F3000DFF89001FEF76FFB606AA8B920690028DE
:103F400018BF022805D04FF49371DFF87801FEF70F
:103F500062FB6069002818BF012805D040F22711D4
:103F6000DFF86001FEF757FB0020A06204F15C055A
:103F7000687820B9002129702046FEF792FC0220C3
:103F800068702068016821F040010160E168B1F5C6
:103F9000E06F04D90022B1F5706F03D104E04FF453
:103FA000805201D00020A062206B30B9B1F5E06FE3
:103FB00087BF02202063012121636368A068216913
:103FC0002668034360690B43A169034301F4007150
:103FD000E0690B43216A0343A06A0B430343336048
:103FE000A369606A616B1B0C03F004030343E06880
:103FF0000B4303431A4323685A602068C16921F4C4
:104000000061C161002068600121697070BDF8B570
:1040100006460025B068002818BFB0F5004F0C46D2
:10402000174605D040F2BC41DFF89800FEF7F3FADE
:1040300006F14400017E012901D10220F2BD0121D7
:1040400001760CB1390001D101252FE0417E012913
:1040500018BF02252AD103214176C561B463B78711
:10406000F787356405804580856040F20171F2680C
:104070008A4227BFDFF85030C360DFF85010C160BC
:10408000B168B1F5004F04D131680A6842F480424A
:104090000A6031684A6842F0A0024A6031680A68E2
:1040A000530603D40A6842F040020A6000210176F8
:1040B0002846F2BD0030014000380040003C00407E
:1040C000003C0140685F0008FB410008DD4100083A
:1040D0007CB5044622685168936803F041000128CA
:1040E00006D1480604D5E16C2046BDE87C4008476F
:1040F000980706D50D0604D5216D2046BDE87C4005
:10410000084713F4B07F5FD088065DD55D060ED5F5
:1041100094F85D0003284AD0206E40F00400206629
:1041200000250095D66800969568009500989D0634
:104130000DD5206E40F001002066002500959268A4
:1041400000922068056825F0400505600098DA05B2
:1041500009D5206E40F008002066002200922068F9
:1041600082680092009B206E70B32068426822F043
:10417000E0024260012011F0030F84F85D001ED0C0
:1041800020684168890889004160A06D28B10FF25C
:104190003D014163A06D00F07BF9606DA0B10FF2AD
:1041A0002D014163606DBDE8764000F071B90020DB
:1041B0000090D168009192680092009873BD2046EB
:1041C000BDE8764000F089B973BD0000406A00F197
:1041D0003E0100220A810A8000F07FB9816B4A1CEF
:1041E0008263036809781973C18F4A1EC287C18F21
:1041F000002908BF00F079B87047816B03680A880E
:10420000DA60816B8A1C8263C18F4A1EC287C18FAC
:10421000002908BF00F069B870477CB505460C4618
:1042200016462868816811F4C05F0AD014F1010FA6
:10423000F7D0002C27D0FEF7EFF9801BA042F0D377
:1042400021E02868816808060AD514F1010FF8D02A
:10425000002C18D0FEF7E0F9801BA042F1D312E049
:104260002868816811F4C06F23D0007B8DF80000AE
:1042700014F1010F9DF80010F2D024B1FEF7CCF933
:10428000801BA042ECD32868416821F0E001416026
:104290006868B0F5827F0BD1A868B0F5004F18BFF1
:1042A000B0F5806F04D12868016821F040010160F9
:1042B00001E0002076BDA86AB0F5005F09D128684A
:1042C000016821F4005101602868026842F400523C
:1042D000026005F15C00012141700022027041681A
:1042E00041F020014160032076BD1CB50446FEF775
:1042F00093F902462068416821F0A0014160204600
:104300006421FFF78AFF18B1206E40F0200020667C
:10431000A06838B9002100912168CA6800928968B4
:1043200000910098012184F85D10206E002820463D
:1043300003D0BDE8164000F0D0B8BDE8164000F04C
:10434000CDB80000F8B50C00064615461F4608BF5C
:10435000012405B90125474947480B78012B35D180
:1043600001224FF48071FDF78DFF44480178B1427E
:1043700005D04349434A00230B6001211170042EEC
:104380002BD8DFE806F0030B14171E000023037080
:10439000E9B2E0B2BDE8F44000F0A2B8012101703A
:1043A0003A4629462046BDE8F84000F0EBB8022224
:1043B000027008E003210170E0B2E9B200F026F9D2
:1043C00001E0042141702E480760F1BDBDE8F840CE
:1043D00000224FF48071FDF755BFF1BDF8B50C0018
:1043E000064615461F4608BF012405B90125264982
:1043F00021480B78012B35D101224FF40051FDF7F4
:1044000041FF1E484178B14205D020491D4A002392
:104410000B6001211170042E2BD8DFE806F0030B8E
:1044200014171E0000234370E9B2E0B2BDE8F44067
:1044300000F07BB8012141703A4629462046BDE88C
:10444000F84000F0BDB80221017008E0032242707C
:10445000E9B2E0B200F0EAF801E0042141700B4853
:104460000760F1BDBDE8F84000224FF40051FDF7B0
:1044700009BFF1BD8C00002000080048040900209D
:104480003C000020D40700208D00002050000020B8
:1044900038B590F821100024022900F1340203D02D
:1044A00004205060012416E001680B6823F00E031D
:1044B0000B60012301680D686D086D000D60D16807
:1044C00095688B406B60012180F8211080F82040B6
:1044D000116801B18847204632BD7047704700001F
:1044E000F0B4234B234D48F65412042451431C705E
:1044F00081FB0565A91301EBD1719C681E4E1F4A13
:104500008DB22C199C605C6856F8247017602C19C9
:104510001568B4F5806F28BFA4F58064B5FBF0F092
:1045200010605C605980F0BC704748F6541070B45D
:104530004143104A81FB02320D49CD684B6890130C
:1045400000EBD07084B26519CD600D4A0A4D55F864
:1045500023601660E318B3F5806F146828BFA3F5D5
:1045600080632409146048804B6070BC7047000071
:10457000EC080020F5344E77504600083C0000203F
:104580005000002070B41E4B1C78012C0AD11D4D28
:104590002E6802EB5002964202D2286809180BE0FE
:1045A00000240CE025000AD1164DA2EB5002286829
:1045B000824203D22A68511A296000E001241CE0DB
:1045C00070B40F4B1C78012C0AD10F4D2E6802EBF2
:1045D0005002964202D2286809180BE000240CE031
:1045E00025000AD1084DA2EB50022868824203D26E
:1045F0002A68511A296000E001241C7070BC7047C1
:10460000D40700203C0000205000002030B40E4AA7
:1046100013685918116040F6FF74156894FBF0F0A8
:10462000854224BF0021116030BC7047074A1368DF
:104630008B4205D240F6FF7191FBF0F0106070479D
:104640001368591A116070473C0000205000002088
:10465000000800000C0800001908000025080000F0
:10466000320800003E0800004B0800005708000018
:1046700064080000710800007D0800008A0800003E
:1046800096080000A3080000AF080000BC08000066
:10469000C8080000D5080000E1080000EE0800008E
:1046A000FA08000007090000130900001F090000B4
:1046B0002C090000380900004509000051090000DC
:1046C0005E0900006A090000760900008309000005
:1046D0008F0900009B090000A8090000B409000030
:1046E000C0090000CC090000D9090000E50900005C
:1046F000F1090000FD090000090A0000150A000088
:10470000220A00002E0A00003A0A0000460A0000B1
:10471000520A00005E0A00006A0A0000760A0000E1
:10472000820A00008E0A00009A0A0000A50A000012
:10473000B10A0000BD0A0000C90A0000D50A000045
:10474000E00A0000EC0A0000F80A0000030B000079
:104750000F0B00001B0B0000260B0000320B0000AB
:104760003D0B0000490B0000540B0000600B0000E3
:104770006B0B0000760B0000820B00008D0B00001D
:10478000980B0000A30B0000AE0B0000BA0B00005A
:10479000C50B0000D00B0000DB0B0000E60B000097
:1047A000F10B0000FC0B0000060C0000110C0000D7
:1047B0001C0C0000270C0000320C00003C0C000018
:1047C000470C0000520C00005C0C0000670C00005D
:1047D000710C00007B0C0000860C0000900C0000A7
:1047E0009A0C0000A50C0000AF0C0000B90C0000F2
:1047F000C30C0000CD0C0000D70C0000E10C000041
:10480000EB0C0000F50C0000FF0C0000090D00008F
:10481000120D00001C0D0000260D00002F0D0000E1
:10482000390D0000420D00004C0D0000550D000038
:104830005F0D0000680D0000710D00007A0D000092
:10484000830D00008C0D0000950D00009E0D0000F2
:10485000A70D0000B00D0000B90D0000C20D000052
:10486000CA0D0000D30D0000DC0D0000E40D0000B7
:10487000ED0D0000F50D0000FD0D0000060E00001E
:104880000E0E0000160E00001E0E0000260E000088
:104890002E0E0000360E00003E0E0000460E0000F8
:1048A0004E0E0000550E00005D0E0000650E00006B
:1048B0006C0E0000740E00007B0E0000820E0000E3
:1048C0008A0E0000910E0000980E00009F0E00005E
:1048D000A60E0000AD0E0000B40E0000BB0E0000DE
:1048E000C10E0000C80E0000CF0E0000D50E000063
:1048F000DC0E0000E20E0000E80E0000EF0E0000EB
:10490000F50E0000FB0E0000010F0000070F000075
:104910000D0F0000130F0000190F00001F0F000003
:10492000240F00002A0F0000300F0000350F000098
:104930003A0F0000400F0000450F00004A0F000032
:104940004F0F0000540F0000590F00005E0F0000D1
:10495000630F0000680F00006D0F0000710F000072
:10496000760F00007A0F00007F0F0000830F000019
:10497000870F00008C0F0000900F0000940F0000C4
:10498000980F00009C0F00009F0F0000A30F000075
:10499000A70F0000AA0F0000AE0F0000B10F00002B
:1049A000B50F0000B80F0000BB0F0000BF0F0000E4
:1049B000C20F0000C50F0000C80F0000CA0F0000A2
:1049C000CD0F0000D00F0000D30F0000D50F000066
:1049D000D80F0000DA0F0000DC0F0000DF0F00002E
:1049E000E10F0000E30F0000E50F0000E70F0000FB
:1049F000E90F0000EB0F0000EC0F0000EE0F0000CD
:104A0000F00F0000F10F0000F30F0000F40F0000A2
:104A1000F50F0000F60F0000F70F0000F80F000080
:104A2000F90F0000FA0F0000FB0F0000FC0F000060
:104A3000FD0F0000FD0F0000FE0F0000FE0F000044
:104A4000FE0F0000FF0F0000FF0F0000FF0F00002F
:104A5000FF0F0000FF0F0000FF0F0000FF0F00001E
:104A6000FE0F0000FE0F0000FE0F0000FD0F000013
:104A7000FD0F0000FC0F0000FB0F0000FA0F00000C
:104A8000F90F0000F80F0000F70F0000F60F00000C
:104A9000F50F0000F40F0000F30F0000F10F00000D
:104AA000F00F0000EE0F0000EC0F0000EB0F000015
:104AB000E90F0000E70F0000E50F0000E30F000022
:104AC000E10F0000DF0F0000DC0F0000DA0F000034
:104AD000D80F0000D50F0000D30F0000D00F00004A
:104AE000CD0F0000CA0F0000C80F0000C50F000066
:104AF000C20F0000BF0F0000BB0F0000B80F000086
:104B0000B50F0000B10F0000AE0F0000AA0F0000AB
:104B1000A70F0000A30F00009F0F00009C0F0000D4
:104B2000980F0000940F0000900F00008C0F000001
:104B3000870F0000830F00007F0F00007A0F000036
:104B4000760F0000710F00006D0F0000680F00006D
:104B5000630F00005E0F0000590F0000540F0000AB
:104B60004F0F00004A0F0000450F0000400F0000EB
:104B70003A0F0000350F0000300F00002A0F000030
:104B8000240F00001F0F0000190F0000130F00007A
:104B90000D0F0000070F0000010F0000FB0E0000CA
:104BA000F50E0000EF0E0000E80E0000E20E00001F
:104BB000DC0E0000D50E0000CF0E0000C80E000075
:104BC000C10E0000BB0E0000B40E0000AD0E0000D0
:104BD000A60E00009F0E0000980E0000910E00002F
:104BE0008A0E0000820E00007B0E0000740E000092
:104BF0006C0E0000650E00005D0E0000550E0000FA
:104C00004E0E0000460E00003E0E0000360E000064
:104C10002E0E0000260E00001E0E0000160E0000D4
:104C20000E0E0000060E0000FD0D0000F50D000048
:104C3000ED0D0000E40D0000DC0D0000D30D0000C0
:104C4000CA0D0000C20D0000B90D0000B00D00003B
:104C5000A70D00009E0D0000950D00008C0D0000BA
:104C6000830D00007A0D0000710D0000680D00003A
:104C70005F0D0000550D00004C0D0000420D0000BE
:104C8000390D00002F0D0000260D00001C0D000046
:104C9000120D0000090D0000FF0C0000F50C0000D3
:104CA000EB0C0000E10C0000D70C0000CD0C000064
:104CB000C30C0000B90C0000AF0C0000A50C0000F4
:104CC0009A0C0000900C0000860C00007B0C000089
:104CD000710C0000670C00005C0C0000520C00001E
:104CE000470C00003C0C0000320C0000270C0000B8
:104CF0001C0C0000110C0000060C0000FC0B000056
:104D0000F10B0000E60B0000DB0B0000D00B0000F5
:104D1000C50B0000BA0B0000AE0B0000A30B000097
:104D2000980B00008D0B0000820B0000760B00003A
:104D30006B0B0000600B0000540B0000490B0000DF
:104D40003D0B0000320B0000260B00001B0B000087
:104D50000F0B0000030B0000F80A0000EC0A000033
:104D6000E00A0000D50A0000C90A0000BD0A0000E0
:104D7000B10A0000A50A00009A0A00008E0A00008D
:104D8000820A0000760A00006A0A00005E0A00003B
:104D9000520A0000460A00003A0A00002E0A0000EB
:104DA000220A0000150A0000090A0000FD0900009F
:104DB000F1090000E5090000D9090000CC09000054
:104DC000C0090000B4090000A80900009B09000008
:104DD0008F09000083090000760900006A090000BD
:104DE0005E09000051090000450900003809000073
:104DF0002C0900001F09000013090000070900002A
:104E0000FA080000EE080000E1080000D5080000E4
:104E1000C8080000BC080000AF080000A30800009C
:104E2000960800008A0800007D0800007108000054
:104E300064080000570800004B0800003E0800000E
:104E40003208000025080000190800000C080000C6
:104E500000080000F3070000E6070000DA07000082
:104E6000CD070000C1070000B4070000A80700003C
:104E70009B0700008E0700008207000075070000F6
:104E8000690700005C0700005007000043070000AE
:104E9000370700002A0700001E0700001107000066
:104EA00005070000F8060000EC060000E006000020
:104EB000D3060000C7060000BA060000AE060000D8
:104EC000A106000095060000890600007C0600008F
:104ED0007006000064060000570600004B06000044
:104EE0003F06000033060000260600001A060000F8
:104EF0000E06000002060000F6050000EA050000AC
:104F0000DD050000D1050000C5050000B905000061
:104F1000AD050000A1050000950500008905000011
:104F20007D05000071050000650500005A050000C0
:104F30004E05000042050000360500002A0500006D
:104F40001F0500001305000007050000FC04000019
:104F5000F0040000E4040000D9040000CD040000C7
:104F6000C2040000B6040000AB0400009F0400006F
:104F700094040000890400007D0400007204000015
:104F8000670400005C0400005104000045040000B8
:104F90003A0400002F04000024040000190400005B
:104FA0000E04000003040000F9030000EE030000FB
:104FB000E3030000D8030000CD030000C30300009A
:104FC000B8030000AD030000A30300009803000035
:104FD0008E03000084030000790300006F030000CB
:104FE000650300005A030000500300004603000060
:104FF0003C03000032030000280300001E030000F1
:10500000140300000A03000000030000F602000081
:10501000ED020000E3020000D9020000D00200000F
:10502000C6020000BD020000B3020000AA02000098
:10503000A0020000970200008E020000850200001E
:105040007C020000730200006A020000610200009E
:10505000580200004F020000460200003D0200001E
:10506000350200002C020000230200001B02000099
:10507000120200000A02000002020000F901000012
:10508000F1010000E9010000E1010000D901000088
:10509000D1010000C9010000C1010000B9010000F8
:1050A000B1010000AA010000A20100009A01000065
:1050B000930100008B010000840100007D010000CD
:1050C000750100006E010000670100006001000032
:1050D00059010000520100004B0100004401000092
:1050E0003E01000037010000300100002A010000ED
:1050F000230100001D010000170100001001000045
:105100000A01000004010000FE000000F800000099
:10511000F2000000EC000000E6000000E0000000EB
:10512000DB000000D5000000CF000000CA00000036
:10513000C5000000BF000000BA000000B50000007C
:10514000B0000000AB000000A6000000A1000000BD
:105150009C00000097000000920000008E000000FC
:105160008900000085000000800000007C00000035
:1051700078000000730000006F0000006B0000006A
:105180006700000063000000600000005C00000099
:105190005800000055000000510000004E000000C3
:1051A0004A000000470000004400000040000000EA
:1051B0003D0000003A00000037000000350000000C
:1051C000320000002F0000002C0000002A00000028
:1051D0002700000025000000230000002000000040
:1051E0001E0000001C0000001A0000001800000053
:1051F0001600000014000000130000001100000061
:105200000F0000000E0000000C0000000B0000006A
:105210000A0000000900000008000000070000006C
:10522000060000000500000004000000030000006C
:105230000200000002000000010000000100000068
:10524000010000000000000000000000000000005D
:10525000000000000000000000000000000000004E
:105260000100000001000000010000000200000039
:105270000200000003000000040000000500000020
:105280000600000007000000080000000900000000
:105290000A0000000B0000000C0000000E000000DF
:1052A0000F000000110000001300000014000000B7
:1052B00016000000180000001A0000001C0000008A
:1052C0001E00000020000000230000002500000058
:1052D000270000002A0000002C0000002F00000022
:1052E0003200000035000000370000003A000000E6
:1052F0003D000000400000004400000047000000A6
:105300004A0000004E00000051000000550000005F
:10531000580000005C000000600000006300000016
:10532000670000006B0000006F00000073000000C9
:10533000780000007C000000800000008500000074
:10534000890000008E00000092000000970000001D
:105350009C000000A1000000A6000000AB000000BF
:10536000B0000000B5000000BA000000BF0000005F
:10537000C5000000CA000000CF000000D5000000FA
:10538000DB000000E0000000E6000000EC00000090
:10539000F2000000F8000000FE0000000401000020
:1053A0000A01000010010000170100001D010000AB
:1053B000230100002A010000300100003701000035
:1053C0003E010000440100004B01000052010000BA
:1053D0005901000060010000670100006E0100003B
:1053E000750100007D010000840100008B010000B8
:1053F000930100009A010000A2010000AA01000030
:10540000B1010000B9010000C1010000C9010000A4
:10541000D1010000D9010000E1010000E901000014
:10542000F1010000F9010000020200000A02000080
:10543000120200001B020000230200002C020000E8
:10544000350200003D020000460200004F0200004D
:1054500058020000610200006A02000073020000AE
:105460007C020000850200008E020000970200000E
:10547000A0020000AA020000B3020000BD0200006A
:10548000C6020000D0020000D9020000E3020000C2
:10549000ED020000F6020000000300000A03000015
:1054A000140300001E030000280300003203000064
:1054B0003C03000046030000500300005A030000B4
:1054C000650300006F0300007903000084030000FF
:1054D0008E03000098030000A3030000AD0300004A
:1054E000B8030000C3030000CD030000D803000090
:1054F000E3030000EE030000F903000003040000D2
:105500000E04000019040000240400002F04000011
:105510003A04000045040000510400005C0400004F
:1055200067040000720400007D040000890400008C
:10553000940400009F040000AB040000B6040000C7
:10554000C2040000CD040000D9040000E4040000FF
:10555000F0040000FC040000070500001305000033
:105560001F0500002A050000360500004205000066
:105570004E0500005A050000650500007105000099
:105580007D0500008905000095050000A1050000CB
:10559000AD050000B9050000C5050000D1050000FB
:1055A000DD050000EA050000F60500000206000027
:1055B0000E0600001A060000260600003306000052
:1055C0003F0600004B06000057060000640600007E
:1055D000700600007C0600008906000095060000A9
:1055E000A1060000AE060000BA060000C7060000D3
:1055F000D3060000E0060000EC060000F8060000FC
:1056000005070000110700001E0700002A07000020
:105610003707000043070000500700005C07000048
:105620006907000075070000820700008E07000070
:105630009B070000A8070000B4070000C107000096
:10564000CD070000DA070000E6070000F3070000BE
:10565000000000000000000000000000000000004A
:10566000000000000000000000000000000000003A
:10567000000000000000000000000000000000002A
:10568000000000000000000000000000000000001A
:10569000000000000000000000000000000000000A
:1056A00000000000000000000000000000000000FA
:1056B00000000000000000000000000000000000EA
:1056C00000000000000000000000000000000000DA
:1056D00000000000000000000000000000000000CA
:1056E00000000000000000000000000000000000BA
:1056F00000000000000000000000000000000000AA
:105700000000000000000000000000000000000099
:105710000000000000000000000000000000000089
:105720000000000000000000000000000000000079
:105730000000000000000000000000000000000069
:105740000000000000000000000000000000000059
:10575000000080C0E0E0F0F0F878383838B8B8B829
:10576000BC3870E0C0000000000000000000000035
:1057700000000080C0E0E0000000707878787000E1
:105780000000000000000000000000000000000019
:105790000000000000000000000000000000000009
:1057A00000000000000080C0E000000000000000D9
:1057B00000000000000010F0F0F0F0F000000080A9
:1057C000808080B0F0F8FCF80000000000000000CD
:1057D000F8FEFFFFFFFF0701F0FCFEFFFF0F0103D4
:1057E000FFFFFEFCF803FFFFFFFFFE03FFFFFFFFCD
:1057F000FC0003FFFFFFFF030303FFFFFFFFFF00AA
:1058000003FFFFFFFF0603FFFFFFFEFC00FCFEFFA0
:10581000FF63637F7F7F7E7003FFFFFFFF0703FF50
:10582000FFFFFE000001FFFFFF010180ECE6F7F340
:1058300037FFFFFFFEFC00FFFFFFFFFF000001013D
:1058400007070101070F0FBFFFFCFC18F8E000007D
:1058500001071F3F7F7FFEF8F0E3E7CFCFCFCCCC2F
:10586000CFEF6733100C0F0F0F0F0F0C0F0F0F0F31
:105870000F0C00070F0F0F0C0C0C0F0F0F0F0F0C5E
:105880000C0F0F0F0F0C000F0F0F0F0F0C0107075E
:105890000F0F0E0E0E0603000C0F0F0F0F0C000F54
:1058A0000F0F0F0C0C00070F0F0C040303070F0F53
:1058B00006070F0F0F0F0C070F0F0F0F0C000C0C2C
:1058C0000C0C0C0C0C0C0B0F0E0F0D0C0C0D0C0C0F
:1058D00000000000000000000001010101010100C2
:1058E00000000000000000000000000000000000B8
:1058F00000000000000000000000000000000000A8
:105900000000000000000000000000000000000097
:105910000000000000000000000000000000000087
:105920000000000000000000000000000000000077
:105930000000000000000000000000000000000067
:105940000000000000000000000000000000000057
:105950000000000000000000000000000000000047
:105960000000000000000000000000000000000037
:105970000000000000000000000000000000000027
:105980000000000000000000000000000000000017
:105990000000000000000000000000000000000007
:1059A00000000000000000000000000000000000F7
:1059B00000000000000000000000000000000000E7
:1059C00000000000000000000000000000000000D7
:1059D00000000000000000000000000000000000C7
:1059E00000000000000000000000000000000000B7
:1059F00000000000000000000000000000000000A7
:105A00000000000000000000000000000000000096
:105A10000000000000000000000000000000000086
:105A20000000000000000000000000000000000076
:105A30000000000000000000000000000000000066
:105A40000000000000000000000000000000000056
:105A500080B500F0D5F8BDE80140FCF7F7BF10B500
:105A60005D4C2068020533D501214FF09040FCF7D2
:105A7000F9FB002802BF59480178032904D100220C
:105A800002704168491C0EE001214FF09040FCF784
:105A9000E9FB012802BF51480178032904D1012202
:105AA00002704168491E41604FF400614FF0904020
:105AB000FCF7D8FB01280BD101214FF09040FCF7F7
:105AC000D1FB012804D14FF400602060FCF714FCE6
:105AD0002068410535D580214FF09040FCF7C2FB8E
