:020000040800F2
:10000000E80400200D2500084125000845250008CA
:10001000492500084D250008512500080000000072
:10002000000000000000000000000000552500084E
:1000300059250008000000005D250008E5230008A0
:100040006125000865250008692500086D25000860
:100050007125000875250008792500087D25000810
:100060008125000885250008892500088D250008C0
:100070009125000895250008992500089D25000870
:10008000A1250008A5250008A9250008AD25000820
:10009000B1250008B5250008B9250008BD250008D0
:1000A000C1250008C5250008C9250008CD25000880
:1000B000D1250008D5250008D9250008DD25000830
:1000C000E1250008E5250008E9250008ED250008E0
:1000D000F1250008F5250008F9250008FD25000890
:1000E000F323000801260008052600080926000859
:1000F0000D260008112600081526000819260008FC
:100100001D26000800000000000000001124000867
:100110002126000825260008292600082D2600088B
:100120003126000835260008392600083D2600083B
:1001300041260008452600080000000000000000DD
:10014000492600084D26000851260008000000003E
:10015000000000000000000000000000000000009F
:1001600055260008592600085D260008612600086B
:1001700065260008692600086D260008712600081B
:100180007526000879260008000000000000000025
:100190007D2600082DE9F047040082B00FF20078B8
:1001A00003D140F2191100F037FA206830B110F095
:1001B0000F0F03D14FF48D7100F02EFA2078DFF885
:1001C000B866C10740F1E780606800281CBFB0F541
:1001D000803FB0F5A02F03D04FF4907100F01CFACF
:1001E000706800F00C0004280AD0706800F00C0061
:1001F000082802BF706800F4C030B0F5803F07D116
:1002000000F005FA39D06068002828D10120EEE11D
:100210006068B0F5803F0FD038B9316821F4803183
:100220003160306820F4802009E0B0F5A02F3168FB
:1002300007D141F480213160306840F48030306073
:1002400006E021F480313160326822F4802232608D
:10025000606868B100F066FB074600F0D8F940F02E
:100260009A8000F05FFBC01B6528F6D30320BEE137
:1002700000F058FB074600F0CAF900F08C8000F04F
:1002800051FBC01B6528F6D3F0E700F04BFB401B89
:10029000022840F2CA80E9E7E06870B101213960C4
:1002A00000F040FB054600F0ADF940F0F78000F0AB
:1002B00039FB401B0228F6D9D8E7386000F032FB42
:1002C000054600F09FF900F0998000F02BFB401BE1
:1002D0000228F6D9CAE70020286000F023FB054673
:1002E00000F089FA00F0A58000F01CFB401B0228FA
:1002F000F6D9BBE708B9306A09E00528306A06D1AB
:1003000040F004003062306A40F0010005E040082F
:1003100040003062306A20F00400306241F28939D6
:10032000A06870B100F0FEFA8246306A00F064FA0C
:1003300040F0C18000F0F6FAA0EB0A004845F4D383
:1003400094E700F0EFFA8246306A00F055FA00F0C8
:10035000B28000F0E7FAA0EB0A004845F4D385E745
:1003600000F0E0FA401B022840F226817EE700F010
:10037000D9FA001B022840F2358177E700F039F9FD
:10038000044600F03AF900F0318100F0CBFA001B8E
:100390000228F6D96AE72078DFF8E87481072DD5BE
:1003A000E068002818BF012803D04FF4AC7100F0BA
:1003B00033F92069202803D340F2591100F02CF9B9
:1003C000706810F00C0F0BD0706800F00C0008285B
:1003D00002BF706800F4C030B0F5004F7FF45CAF2E
:1003E00000F010F91CBFE06801287FF40FAF3168FE
:1003F000206921F0F80141EAC00131602178080745
:1004000017D56069DFF88054002807D0012807D08D
:1004100040F2991100F000F9606900283FF45BAFE9
:100420000121296000F07EFA054600F0E4F93FF46E
:100430002CAF2078410743D5A068002500281CBFB9
:100440000128052803D040F2C51100F0E5F8F06955
:10045000C10009D4F06940F08050F0610125F069D5
:1004600000F0805000900098DFF820A4DAF8001027
:10047000C8051BD4DAF8000040F48070CAF8000008
:1004800000F050FA8146DAF80010C8050ED400F0EA
:1004900049FAA0EB09006528F5D3E7E63068216941
:1004A00020F0F80040EAC1003060A7E7A06801280A
:1004B0007FF420AF27E71DB1F06920F08050F06194
:1004C000A069002809D0012818BF022807D040F2EF
:1004D000092100F0A1F8A069002800F08780716868
:1004E00001F00C0108293FF491AEA06902287FF4C5
:1004F00045AFE069B0F5004F18BFB0F5803F03D0BD
:1005000040F2122100F088F8206A002818BFB0F5E8
:10051000802F29D0B0F5002F18BFB0F5402F23D081
:10052000B0F5801F18BFB0F5A01F1DD0B0F5C01FDB
:1005300018BFB0F5E01F17D0B0F5001F18BFB0F519
:10054000101F11D0B0F5201F18BFB0F5301F0BD011
:10055000B0F5401F1CBFB0F5501FB0F5601F03D0B1
:1005600040F2132100F058F8606A002818BF0128F3
:100570001FD0022818BF03281BD0042818BF052845
:1005800017D0062818BF072813D0082818BF092835
:100590000FD00A2818BF0B280BD00C2818BF0D2825
:1005A00007D00E2818BF0F2803D040F2152100F005
:1005B00033F800F01EF8054600F01FF87FF4D0AEC7
:1005C000F16A606A090940EA0111F1627168206A02
:1005D00021F476110143E06901437160012000F0CC
:1005E00009F8044600F009F83FF4C1AE0020BDE868
:1005F000F6870020386600F095B93068C0F3406097
:10060000002870473068C0F3400000287047306809
:10061000C0F3404000287047404600F00FBA2DE973
:10062000F04704000D460FF2782903D140F27721FC
:1006300000F0F0F8207810F00F0F03D14FF41E7186
:1006400000F0E8F8002D1CBF012D022D03D040F270
:10065000792100F0DFF8DFF83862306800F0070039
:10066000A84202D200F0CCF83BD12178DFF8087222
:1006700088071BD5A068002818BF802810D09028B4
:1006800018BFA0280CD0B02818BFC02808D0D02888
:100690001CBFE028F02803D04FF4247100F0BAF812
:1006A0007968A06821F0F001014379602078C107E2
:1006B00040F18C806068A8B1012808D002280CD0D5
:1006C00040F2972100F0A6F86068012803D138684D
:1006D000C0F3404004E0022804D13868C0F3406011
:1006E00020B97BE0386800F087F877D079686068D7
:1006F000890840EA8101796041F2893A00F012F9F3
:100700008046606801280CD1786800F00C0004284D
:100710005CD000F007F9A0EB08005045F4D30320AB
:1007200052E002285CD1786800F00C0008284DD017
:1007300000F0F8F8A0EB08005045F4D3EFE720787C
:10074000410717D5E068002818BFB0F5806F0BD0BF
:10075000B0F5A06F1CBFB0F5C06FB0F5E06F03D06F
:1007600040F2E92100F056F87968E06821F4E06190
:10077000014379602078010718D52069002818BF47
:10078000B0F5806F0BD0B0F5A06F1CBFB0F5C06F97
:10079000B0F5E06F03D04FF43C7100F03BF878689F
:1007A000216920F4605040EAC100786000F035F81B
:1007B0007A683849C2F30312895C304AC840106035
:1007C000002000F03DF90020BDE8F087306800F01F
:1007D00007008542B3D200F013F8B0D00120F3E750
:1007E000786810F00C0FF1D000F09CF8A0EB080036
:1007F0005045F5D393E7706AC0F340000028704776
:100800003168C90845EAC1013160306800F007006D
:10081000A8427047484600F011B91F4981B00A68E4
:1008200002F00C0008280FD10FF2D803C2F3834066
:10083000185C896A0FF2DC0301F00F01595C104B60
:10084000B3FBF1F1484300E00D4801B070470B489D
:10085000006870470948104A006813680F49C3F3DD
:10086000022206E005480C4A006813680B49C3F3EE
:10087000C222895CC8407047001002400C00002072
:1008800000127A00000042428004424200700040A0
:10089000002002409423000804100240382500087C
:1008A000443A5C5369676E616C2047656E6572619E
:1008B000746F725C53575C5369676E616C47656E09
:1008C000657261746F725630305F322E325C4472E2
:1008D00069766572735C53544D3332463378785F72
:1008E00048414C5F4472697665725C5372635C7315
:1008F000746D3332663378785F68616C5F726363FE
:100900002E63000002030405060708090A0B0C0DFC
:100910000E0F10100102030405060708090A0B0C4C
:100920000D0E0F1001484068704700BF0000002006
:1009300001281E4905D14FF47C5008604CF2A000FC
:1009400004E04FF4785008604CF2A0100861704742
:1009500010B500F095F800F02DF800F0A3F800F0C5
:1009600057F900F0B7F900220021282000F050FAD2
:10097000282000F07EFA00220021332000F048FAFF
:10098000332000F076FA0A4C01202070FFF7D0FFE8
:100990004FF47A7000F0F0FA00202070FFF7C8FFE3
:1009A0004FF47A7000F0E8FAEEE70000180400480F
:1009B000E400002000B5A5B00220059001210891B7
:1009C0001020099002210B914FF400400C904FF43D
:1009D000E01100220D910E9205A8FFF7DBFB00B19C
:1009E000FEE70F2102200091019000214FF480606A
:1009F00002910390049168460221FFF710FE00B1B6
:100A0000FEE702200F90002112910FA800F0C8FA13
:100A100000B1FEE7FFF71BFF4FF47A71B0FBF1F076
:100A200000F03EFA042000F04FFA002200214FF0BF
:100A3000FF3000F0EDF925B000BDFEE77047000083
:100A400038B50D4D0D4A297804464FF47A70B0FB45
:100A5000F1F11068B0FBF1F000F022FA50B9102C5F
:100A600008D2002221464FF0FF3000F0D1F9AC60EF
:100A7000002032BD012032BD000000200C0000200B
:100A800080B50748016841F010010160032000F0C3
:100A9000A2F90020FFF7D4FF00F00AFD002002BDFC
:100AA000002002402DE9F0434A484B4DDFF82C81ED
:100AB000DFF82C9187B0016841F40021016040F615
:100AC0003404026802F40022059248F220360599A7
:100AD000016841F4800101604FF6F777026802F483
:100AE000800205920599016841F4003101600268B5
:100AF00002F4003205920599016841F480210160F9
:100B0000026802F48022059200220599016841F4EE
:100B1000801101602146006800F48010059005985E
:100B2000284600F05EFE002231464FF0904000F073
:100B300058FE00223946404600F053FE00220421B0
:100B4000484600F04EFE42F20200009000210120D3
:100B500000F04AF840F2C93000900321002000F074
:100B600043F800F047F800946946284600F0E6FC98
:100B7000932000900021012000F043F800F03AF8A3
:100B8000009669464FF0904000F0D8FC402000905D
:100B90000321002000F035F800F02CF8009769469A
:100BA000404600F0CBFC4FF4E050009001200D498E
:100BB00000F027F80420012100900191002003217A
:100BC000029003914846694600F0B8FC07B0BDE8C2
:100BD000F0830000141002400008004800040048A0
:100BE000000C00480000111001910290694628464F
:100BF00000F0A4BC01200190002103200291039089
:100C000070470191029069464FF0904000F096BC09
:100C100080B51E481E4901604FF416414160002115
:100C20008160C16001610C21416100218161C1616C
:100C30000162416200F04EFE30B1BDE80440442143
:100C40000FF25400FFF7F9BE01BD00681049884259
:100C500000D0704700B50F4887B0016841F40031FB
:100C600001600C21006800F400300090022200981E
:100C7000019100200390049002920720059001A9A1
:100C80004FF0904000F05AFC07B000BD100000206B
:100C9000004400401C100240443A5C5369676E6196
:100CA0006C2047656E657261746F725C53575C535C
:100CB00069676E616C47656E657261746F725630FC
:100CC000305F322E325C5372635C75736172742EC6
:100CD0006300000080B52548254901604FF482710A
:100CE0004160002181604FF47061C16000210161A9
:100CF00041614FF4007181613821C16100210162BD
:100D0000416281620721C1620021016308214163C0
:100D100001F020F930B1BDE8044047210FF25C003A
:100D2000FFF78BBE01BD00681149884200D07047B3
:100D300000B5104887B0016841F4004101604FF4EC
:100D4000A051006800F40040009002220098019138
:100D5000002003900321062004910590029201A92E
:100D6000054800F0EBFB07B000BD0000800000204C
:100D7000003C00401C10024000080048443A5C530C
:100D800069676E616C2047656E657261746F725C35
:100D900053575C5369676E616C47656E6572617429
:100DA0006F725630305F322E325C5372635C7370F8
:100DB000692E63000901002881B007D5DFF83021D2
:100DC00000F00F00104400F8041C02E0DFF82421BA
:100DD000115401B0704710B50446072C18BF062CFB
:100DE00007D0052C1CBF042C032C02D0BC2100F022
:100DF00053F8DFF804110A684FF6FF00240202409E
:100E000004F4E0641443DFF8F40004430C6010BD04
:100E1000F8B51546102D04460E460FF2F00703D321
:100E2000D4213846FFF70AFE102E03D3D5213846C9
:100E3000FFF704FEDFF8C0000168C1F30220C0F133
:100E40000701052928BF0421021D072A34BF0020FD
:100E5000C01E012202FA01F1491E0E40864002FA2C
:100E600000F0401E054045EA06012046BDE8F4407A
:100E7000A0E738B50446250002D5E82100F00CF8BB
:100E8000012204F01F04DFF87800FFE702FA04F4FF
:100E90006D0940F8254031BD0FF27000FFF7CEBD5F
:100EA00010B5401EB0F1807F01D3012010BD154C5C
:100EB00060600F214FF0FF30FFF77CFF0022A2603F
:100EC00007202060002010BD10B504280D4C09D06B
:100ED00018B140F2E111FFF7DFFF226822F00402AF
:100EE000226010BD206840F00400206010BD0000AA
:100EF00018ED00E000E400E00CED00E00000FA0571
:100F000000E100E010E000E000F034B8443A5C5347
:100F100069676E616C2047656E657261746F725CA3
:100F200053575C5369676E616C47656E6572617497
:100F30006F725630305F322E325C44726976657261
:100F4000735C53544D3332463378785F48414C5F7D
:100F50004472697665725C5372635C73746D33328C
:100F6000663378785F68616C5F636F727465782E42
:100F7000630000007047000038B50446FFF7D2FC5C
:100F800014F1010F054602D0044801786418FFF7F8
:100F9000C9FC401BA042FAD331BD00BF00000020B5
:100FA0002DE9F8430546DFF8901428680FF29848B9
:100FB000884202D37D2100F03BFA2868DFF87C7478
:100FC000C10363D56868002818BFB0F5807F08D0DA
:100FD000B0F5007F18BFB0F5407F02D0832100F04C
:100FE00027FAB8690024C10009D4B86940F08050DC
:100FF000B8610124B86900F0805000900098DFF8D3
:1010000040643168C80519D4306840F4807030609D
:10101000FFF788FC81463168C8050FD4FFF782FCD2
:10102000A0EB09006528F6D30320FFE1FFF77AFC67
:10103000801B41F28931884218D3F5E7F86910F432
:1010400040701EBF696801F44071884213D0DFF818
:10105000F413F86901220A6020F4407000220A604B
:10106000F861C00707D5FFF75DFC0646F869C0F3D5
:1010700040000028DAD0F969686821F44071014322
:10108000F9611CB1B86920F08050B8612978C807AF
:1010900011D5A868002818BF012806D0022818BF5B
:1010A000032802D0CA2100F0C3F9F96AA8688908A8
:1010B00040EA8101F9622878810714D5E8680028A0
:1010C00018BFB0F5803F08D0B0F5003F18BFB0F5AD
:1010D000403F02D0D52100F0ABF9F96AE86821F46D
:1010E00040310143F9622878410714D52869002866
:1010F00018BFB0F5802F08D0B0F5002F18BFB0F59D
:10110000402F02D0E12100F093F9F96A286921F417
:1011100040210143F962287881060DD5E86900284D
:1011200018BF102802D0EC2100F082F9F96AE869B2
:1011300021F010010143F962286881030ED5686D22
:10114000B0F5800F18BF002802D0FA2100F070F926
:101150003968686D21F480010143396028784106BF
:101160000ED5286A002818BF202803D04FF48771B5
:1011700000F05EF9F96A286A21F020010143F96262
:10118000286841030ED5686A002818BF402803D09C
:101190004FF4907100F04CF9F96A686A21F040014F
:1011A0000143F9622878010715D56869002818BF3E
:1011B000B0F5801F09D0B0F5001F18BFB0F5401F73
:1011C00003D040F22F1100F033F9F96A686921F475
:1011D00040110143F9622878C10615D5A869002895
:1011E00018BFB0F5800F09D0B0F5000F18BFB0F5EB
:1011F000400F03D040F2391100F01AF9F96AA869DA
:1012000021F440010143F962286881050FD5286B5C
:10121000002818BFB0F5000F03D040F2491100F0CC
:1012200007F93968286B21F40001014339602878F7
:1012300001062FD5A86A002818BFB0F5807F23D0FB
:10124000B0F5887F18BFB0F5907F1DD0B0F5987FBE
:1012500018BFB0F5A07F17D0B0F5A87F18BFB0F5C4
:10126000B07F11D0B0F5B87F18BFB0F5C07F0BD0FC
:10127000B0F5C87F1CBFB0F5D07FB0F5D87F03D0E4
:1012800040F2691100F0D4F8B96AA86A21F4F87143
:101290000143B9622868C1052FD5E86A002818BF44
:1012A000B0F5005F23D0B0F5085F18BFB0F5105F50
:1012B0001DD0B0F5185F18BFB0F5205F17D0B0F59E
:1012C000285F18BFB0F5305F11D0B0F5385F18BF98
:1012D000B0F5405F0BD0B0F5485F1CBFB0F5505F74
:1012E000B0F5585F03D04FF4BD7100F0A1F8B96AB2
:1012F000E86A21F478510143B9622868C1040FD526
:10130000686B002818BFB0F5807F03D04FF4CD7113
:1013100000F08EF8F96A686B21F480710143F9627C
:10132000286881040FD5286C002818BFB0F5007F0D
:1013300003D04FF4D67100F07BF8F96A286C21F4E1
:1013400000710143F9622868C1020FD5A86B00281B
:1013500018BFB0F1807F03D040F2032100F068F89D
:10136000F96AA86B21F080710143F9622868810253
:101370000FD5E86B002818BFB0F1007F03D040F212
:101380000D2100F055F8F96AE86B21F00071014376
:10139000F962286841020FD5686C002818BFB0F5C3
:1013A000806F03D040F2172100F042F8F96A686CB0
:1013B00021F480610143F962286801020FD5A86C0D
:1013C000002818BFB0F5006F03D040F2212100F0D3
:1013D0002FF8F96AA86C21F400610143F9622868CA
:1013E000C1010FD5E86C002818BFB0F5005F03D02D
:1013F00040F22B2100F01CF8F96AE86C21F400514E
:101400000143F962286881010FD5286D002818BFB3
:10141000B0F5004F03D04FF40E7100F009F8F96AEF
:10142000286D21F400410143F9620020BDE8F283F8
:101430004046FFF703BB00000034F70304100240EE
:101440000070004040044242443A5C5369676E6158
:101450006C2047656E657261746F725C53575C53A4
:1014600069676E616C47656E657261746F72563044
:10147000305F322E325C447269766572735C53540D
:101480004D3332463378785F48414C5F4472697619
:1014900065725C5372635C73746D33326633787853
:1014A0005F68616C5F7263635F65782E6300000044
:1014B00080B52148016841F001010160026802F035
:1014C000010200920099416841F0805141604068FA
:1014D00000F08050009000980720FFF77CFC00226D
:1014E00000216FF00B00FFF793FC002200216FF04A
:1014F0000A00FFF78DFC002200216FF00900FFF7C2
:1015000087FC002200216FF00400FFF781FC00221D
:1015100000216FF00300FFF77BFC002200216FF039
:101520000100FFF775FCBDE80840002200214FF0E4
:10153000FF30FFF76DBC00BF181002402DE9F84FD7
:1015400005460027B5F1904F1CBFDFF8DC0285424D
:101550000E461AD0DFF8D40285421CBFDFF8D00255
:10156000854212D0DFF8CC0285421CBFDFF8C802EA
:1015700085420AD0DFF8C40285421CBFDFF8C002F2
:10158000854202D0C32100F028F93068010402D05E
:10159000000C000402D0C42100F01FF9706800287C
:1015A00018BF012822D0112818BF02281ED01228E7
:1015B0001CBFDFF89012884218D0DFF88C128842E6
:1015C0001CBFDFF88812884210D0DFF884128842EE
:1015D0001CBFDFF88012884208D0DFF87C128842F6
:1015E00018BF032802D0C52100F0F7F8B06890B307
:1015F000012818BF02282ED0C62100F0EEF82AE0FC
:10160000DFF838329D4214BF0723062303FA09F39B
:10161000134340F82130E143DFF840020268736869
:101620000A40DB0348BF22430260426873680A40F5
:101630009B0348BF22434260826873680A40DB0212
:1016400048BF22438260C2680A4071688B0248BF6B
:101650002243C2607F1C346834FA07F000F0B58082
:10166000012000FA07F818EA0404F3D07068022891
:1016700018BF12284FEA870939D1B5F1904F1CBF26
:10168000DFF8A40185421AD0DFF8A00185421CBF13
:10169000DFF89C01854212D0DFF8980185421CBF1B
:1016A000DFF8940185420AD0DFF8900185421CBF23
:1016B000DFF88C01854202D0D52100F08EF8306928
:1016C0000D2806D30E2818BF0F2802D0D62100F00F
:1016D00084F8F80805EB800009F01C02016A0F236A
:1016E00093409943336903FA02F2114301624FEACE
:1016F000470A0321286801FA0AF16FEA010B3179E0
:1017000001F0030100F063F828607068012818BF39
:10171000022803D0112818BF122816D1F06800281B
:101720001CBF0128032802D0EA2100F056F8A8685F
:10173000F16800F04CF8A860686820EA0801706859
:10174000C0F30010B84008436860E8680BEA000185
:10175000B06800FA0AF00843E8607068C1007FF5DD
:1017600079AF3F48016841F001010160B9080068A4
:1017700000F00100009009F00C090098394850F879
:1017800021300F2202FA09F223EA0202B5F1904F4A
:1017900008BF002318D0244B9D4208BF012313D05B
:1017A000224B9D4208BF02230ED0214B9D4208BF11
:1017B000032309D01F4B9D4208BF042304D01E4BB6
:1017C0009D427FF41DAF052320E7BDE8F18F0BEAB2
:1017D000000001FA0AF1084370470FF29000FFF78A
:1017E0002DB9F8B504460D46280016460FF27C07C1
:1017F00003D14FF4D87100F00CF8300007D0012E5F
:1018000003D040F2B11100F004F8A561F1BDA5626A
:10181000F1BD3846FFF712B9134A136803421CBFE3
:10182000106000F055B870470004004800080048F8
:10183000000C004800100048001400480018004840
:10184000001C0048000011100000211000003110A1
:1018500000001210000022100000321000040140AD
:10186000181002400800014014040140443A5C533F
:1018700069676E616C2047656E657261746F725C3A
:1018800053575C5369676E616C47656E657261742E
:101890006F725630305F322E325C447269766572F8
:1018A000735C53544D3332463378785F48414C5F14
:1018B0004472697665725C5372635C73746D333223
:1018C000663378785F68616C5F6770696F2E63005C
:1018D0007047000070B504002DD02168A269DFF8C0
:1018E000C800DFF8C830DFF8C850DFF8C8603AB188
:1018F000B1421CBFA942994213D040F231110EE00F
:10190000B14218BFA9420CD099421FBFDFF8A820EE
:101910009142DFF8A820914203D04FF49B71FFF76A
:101920008DF804F16805687808B900F018F800F03F
:101930001BF8012801D1012070BD606A08B100F0D8
:101940002AF82068416821F4904100F001F815E080
:1019500041602068816821F02A0181607047002180
:1019600029702046FFF771B924206870206801684B
:10197000490849000160204600F022B800F004F850
:10198000BDE8704000F055BA2068016841F00101DF
:10199000016020467047204600F058B92068DFF803
:1019A0001410884270470000F01E000800480040F4
:1019B0000044004000380140004C0040005000400E
:1019C0002DE9F041044682B06068DFF83C14102530
:1019D0000026002788420FF2185803D340F6390139
:1019E00000F031F9A068B0F1805F1CBF0028B0F5AD
:1019F000805F03D040F63A0100F025F9E068B0F5C9
:101A0000805F18BF002809D0B0F5405F18BFB0F55F
:101A1000005F03D040F63B0100F015F92069002873
:101A20001CBFB0F5806FB0F5C06F03D040F63C012D
:101A300000F009F9616931F00C0000D119B940F6E4
:101A40003D0100F000F9A069002818BFB0F5807FC3
:101A500009D0B0F5007F18BFB0F5407F03D040F645
:101A60003E0100F0F0F8206A002818BFB0F5006FC2
:101A700003D040F63F0100F0E6F8E069002818BF07
:101A8000B0F5004F03D04FF4046100F0DCF821689A
:101A9000DFF878030A680240A06802432069024325
:101AA00060690243E06902430A604A68E06822F420
:101AB000405202434A608A68A06922F430620243BD
:101AC000206A02438A60DFF84803DFF84823914226
:101AD0000AD1006800F0030003283DD8DFE800F0D9
:101AE00002283B15012537E0DFF82C2391420ED167
:101AF000006810F4403050D0B0F5803F18D0B0F5F9
:101B0000003F28D0B0F5403F26D1022524E0DFF881
:101B10000C2391420ED1006810F440203DD0B0F566
:101B2000802F05D0B0F5002F15D0B0F5402F10E074
:101B3000042511E0BA4A91421FD1006810F4401008
:101B40002BD0B0F5801FF3D0B0F5001F03D0B0F557
:101B5000401FDAD000E00825E069B0F5004F40D121
:101B600045B1012D1BD0022D1CD0042D1FD0082DF6
:101B700026D02CE0FEF76EFE1BE0A24A9142EBD18C
:101B8000006810F4400008D0B0F5800FD0D0B0F558
:101B9000000FE0D0B0F5400FDBE70025DCE7FEF7F3
:101BA00061FE06E060689F4901EB50010CE0FEF722
:101BB00034FE61684A0802EB4002B2FBF1F607E02E
:101BC0006068410801F58031B1FBF0F600E00127C3
:101BD0004FF6F0723240C6F3420002432068C26002
:101BE00027E045B1012D0BD0022D0ED0042D11D0D0
:101BF000082D14D01CE0FEF72DFE00F01DF814E0B7
:101C0000FEF730FE00F018F80FE06068864A02EB3D
:101C1000500208E0FEF701FE00F00EF805E06068F3
:101C2000420802F50042B2FBF0F080B2C86000E06A
:101C300001273846BDE8F681616800EB5100B0FB32
:101C4000F1F0216870474046FEF7F8BE38B504460B
:101C50000FF29C25606AB0F5807F03D340F6A201A5
:101C600000F0E4F894F82400C10710D5A06A002819
:101C700018BFB0F5003F03D040F6A70100F0D6F83A
:101C800021684A68A06A22F4003202434A6094F84C
:101C90002400810710D5E06A002818BFB0F5803F06
:101CA00003D040F6AE0100F0C1F821684A68E06A4E
:101CB00022F4803202434A6094F82400410710D590
:101CC000206B002818BFB0F5802F03D040F6B50177
:101CD00000F0ACF821684A68206B22F480220243AD
:101CE0004A6094F82400010710D5606B002818BFE3
:101CF000B0F5004F03D040F6BC0100F097F8216822
:101D00004A68606B22F4004202434A6094F824005F
:101D1000C10610D5A06B002818BFB0F5805F03D0B6
:101D200040F6C30100F082F821688A68A06B22F4B3
:101D3000805202438A6094F82400810610D5E06B3B
:101D4000002818BFB0F5005F03D040F6CA0100F0CC
:101D50006DF821688A68E06B22F4005202438A60C1
:101D600094F82400410637D5FFF718FE1FBF2A4913
:101D700088422A49884203D040F6D10100F056F843
:101D8000206C002818BFB0F5801F03D040F6D201A8
:101D900000F04CF821684A68206C22F4801202435B
:101DA0004A60206CB0F5801F16D1606C002818BF07
:101DB000B0F5001F09D0B0F5800F18BFB0F5C00F07
:101DC00003D040F6D70100F031F821684A68606C12
:101DD00022F4C00202434A6094F82400010610D5A0
:101DE000A06C002818BFB0F5002F03D040F6DF012B
:101DF00000F01CF821684A68A06C22F4002202431B
:101E00004A6031BD0050004041548900F369FFEF42
:101E100030100240003801400044004000480040BB
:101E2000004C00400024F40000127A002846FEF71F
:101E300005BEF8B5044604F16805002068606FF03F
:101E40007E47FEF76FFD0646206801680A0707D542
:101E50000097334600224FF4001100F015F858B9EE
:101E6000206801684A0709D50097334600224FF4DD
:101E7000800100F009F808B10320F2BD202068704D
:101E8000A87000202870F2BD2046FFE72DE9F04140
:101E9000069C05460E4690461F462868C16931409B
:101EA000B1420CBF01200020404518D114F1010FB0
:101EB000F3D024B1FEF736FDC01B8442EDD2286872
:101EC000016821F4D071016000F00CF805F16800A0
:101ED00020214170817000210170032000E000206A
:101EE000BDE8F08128688168490849008160704731
:101EF000443A5C5369676E616C2047656E65726138
:101F0000746F725C53575C5369676E616C47656EA2
:101F1000657261746F725630305F322E325C44727B
:101F200069766572735C53544D3332463378785F0B
:101F300048414C5F4472697665725C5372635C73AE
:101F4000746D3332663378785F68616C5F75617287
:101F5000742E630038B5040001D1012032BD206821
:101F6000DFF8FC11DFF8FC5188421CBFDFF8F811E4
:101F700088420BD0DFF8F41188421CBFDFF8F01163
:101F8000884203D040F21B1100F0DFF8606800289F
:101F900018BFB0F5827F03D04FF48E7100F0D5F8F2
:101FA000A06800281CBFB0F5806FB0F5004F03D0CB
:101FB00040F21D1100F0C9F8E068B0F5706F18BF6D
:101FC000B0F5606F23D0B0F5506F18BFB0F5406F1B
:101FD0001DD0B0F5306F18BFB0F5206F17D0B0F539
:101FE000106F18BFB0F5006F11D0B0F5E06F18BFDB
:101FF000B0F5C06F0BD0B0F5A06F1CBFB0F5806F0F
:10200000B0F5407F03D04FF48F7100F09EF8A069C7
:10201000B0F5007F1CBF0028B0F5802F03D040F240
:102020001F1100F092F8606B082818BF002803D039
:102030004FF4907100F089F8E069002818BF082873
:102040000FD0102818BF18280BD0202818BF282818
:1020500007D0302818BF382803D040F2211100F0F3
:1020600074F8206A002818BF802803D04FF49171BB
:1020700000F06BF8606A38B1102817D040F22311D5
:1020800000F063F8606A88B92069002818BF022848
:1020900003D04FF4937100F058F86069002818BF1E
:1020A000012803D040F2271100F04FF80020A06271
:1020B00004F15C05687820B9002129702046FEF7FC
:1020C00032FE00F045F8E268B2F5E06F04D9002175
:1020D000B2F5706F03D104E04FF4805101D00020BD
:1020E000A062206B30B9B2F5E06F87BF0222226395
:1020F000012020636268A068A3690243206902434B
:102100006069024303F40073E0691A430243206AE2
:102110000243A06A024320680260A269606A120C4E
:1021200002F004020243606B0243E068024320684D
:10213000114341602068C16921F40061C161002040
:10214000686001206870002032BD2846FEF776BC2A
:10215000022068702068016821F04001016070472A
:10216000003001407822000800380040003C004068
:10217000003C014038B5044620684168826802F09E
:102180004103012B06D14D0604D5E16C2046BDE884
:1021900034400847930706D50B0604D5216D204629
:1021A000BDE83440084712F4B07F5CD08B065AD5A6
:1021B00053060ED594F85D30032B47D0256E45F0BD
:1021C0000405256600230093C56800958368009385
:1021D000009D93060CD5236E43F001032366002572
:1021E000009583680093056825F040050560009818
:1021F000D00509D5206E40F008002066002200922C
:102200002068826800920098206E60B3206842685F
:1022100022F0E0024260012011F0030F84F85D001B
:102220001CD020680FF2410541688908890041608F
:10223000A06D18B14563A06D00F050F8606D90B1CD
:102240004563606DBDE8324000F048B80021009160
:10225000C268009280680090009931BD2046BDE8B8
:10226000324000F060B831BD406A00F13E0100220A
:102270000A810A8000F057B8443A5C5369676E617E
:102280006C2047656E657261746F725C53575C5366
:1022900069676E616C47656E657261746F72563006
:1022A000305F322E325C447269766572735C5354CF
:1022B0004D3332463378785F48414C5F44726976DB
:1022C00065725C5372635C73746D33326633787815
:1022D0005F68616C5F7370692E63000038B590F8B9
:1022E00021100024022900F1340203D004205060A0
:1022F000012416E001680B6823F00E030B60012334
:1023000001680D686D086D000D60D1688B409168A3
:102310004B60012380F8213080F82040116801B122
:102320008847204632BD70471448016841F4700167
:1023300001601349086840F0010008604A681148CC
:1023400002404A600B68104803400B60086820F4A4
:10235000802008604A6822F4FE024A60C86A0009C8
:102360000001C8620A6B094802400A6300208860C5
:102370004FF00060064908607047000088ED00E0FB
:10238000001002400CC07FF8FFFFF6FECCFC00FFFF
:1023900008ED00E00000000000000000010203045E
:1023A0000607080919E050F8042BD30744BFA9F128
:1023B00001039A18091F0023042942F8043BF9D2AB
:1023C0005FEA817C134604D54FF0000CA2F800C0F0
:1023D0009B1CC90744BF0021197050F8041B002939
:1023E000E1D1704780B500F019F8BDE80140FEF773
:1023F0008BBD80B54FF48060FFF70EFA4FF400609C
:10240000FFF70AFABDE802404FF48050FFF704BA24
:102410000148FFF7AFBE000080000020024841687D
:1024200002788918416070470000002010B450F80D
:10243000041B79B10268436802440830DC0744BFDA
:10244000A9F10104E31852F8044B43F8044B091FA7
:10245000F9D1ECE710BC704710B507497944183141
:10246000064C7C44163404E00A68081D1144884771
:102470000146A142F8D110BD2C0000004C00000024
:102480004EF68851CEF20001086840F470000860F2
:10249000BFF34F8FBFF36F8F4FF00070E1EE100A64
:1024A0007047000001FFFFFFD8000000100000206F
:1024B0000000000079FFFFFF100000006000000036
:1024C000000000200000000000F00BF8002801D000
:1024D000FFF7C2FF0020AFF30080FEF739FA00F0EB
:1024E00002F80120704700F001B8000007463846A6
:1024F00000F002F8FBE7000080B5AFF30080024A6D
:1025000011001820ABBEFBE72600020001488047FF
:1025100001480047292300082D250008010000007C
:10252000000000001000000000127A00AFF30080ED
:10253000FFF7A6FFFFF7C8FF000000000102030439
:10254000FFF7FEBFFFF7FEBFFFF7FEBFFFF7FEBFBF
:10255000FFF7FEBFFFF7FEBFFFF7FEBFFFF7FEBFAF
:10256000FFF7FEBFFFF7FEBFFFF7FEBFFFF7FEBF9F
:10257000FFF7FEBFFFF7FEBFFFF7FEBFFFF7FEBF8F
:10258000FFF7FEBFFFF7FEBFFFF7FEBFFFF7FEBF7F
:10259000FFF7FEBFFFF7FEBFFFF7FEBFFFF7FEBF6F
:1025A000FFF7FEBFFFF7FEBFFFF7FEBFFFF7FEBF5F
:1025B000FFF7FEBFFFF7FEBFFFF7FEBFFFF7FEBF4F
:1025C000FFF7FEBFFFF7FEBFFFF7FEBFFFF7FEBF3F
:1025D000FFF7FEBFFFF7FEBFFFF7FEBFFFF7FEBF2F
:1025E000FFF7FEBFFFF7FEBFFFF7FEBFFFF7FEBF1F
:1025F000FFF7FEBFFFF7FEBFFFF7FEBFFFF7FEBF0F
:10260000FFF7FEBFFFF7FEBFFFF7FEBFFFF7FEBFFE
:10261000FFF7FEBFFFF7FEBFFFF7FEBFFFF7FEBFEE
:10262000FFF7FEBFFFF7FEBFFFF7FEBFFFF7FEBFDE
:10263000FFF7FEBFFFF7FEBFFFF7FEBFFFF7FEBFCE
:10264000FFF7FEBFFFF7FEBFFFF7FEBFFFF7FEBFBE
:10265000FFF7FEBFFFF7FEBFFFF7FEBFFFF7FEBFAE
:10266000FFF7FEBFFFF7FEBFFFF7FEBFFFF7FEBF9E
:10267000FFF7FEBFFFF7FEBFFFF7FEBFFFF7FEBF8E
:040000050800252D9D
:00000001FF
